:020000040800F2
:10000000500D0020C90200089B140008A90A00082E
:1000100099140008A90700084D1B00080000000003
:10002000000000000000000000000000811800082F
:10003000AB07000800000000BD1700088518000885
:10004000E3020008E3020008E3020008E3020008FC
:10005000E3020008E3020008F1070008B508000801
:10006000D9080008FD08000821090008E30200087B
:10007000E3020008E3020008E3020008E3020008CC
:10008000E302000800000000E3020008E3020008A9
:10009000E3020008E3020008E30200084509000843
:1000A0002119000845190008E3020008E3020008CE
:1000B0005519000875190008E3020008E30200085A
:1000C000E3020008E3020008E3020008E30200087C
:1000D000E3020008351B0008411B0008E30200088A
:1000E00015080008E3020008E3020008E302000824
:1000F000E3020008E3020008E30200080000000039
:1001000000000000E302000800000000E302000815
:10011000E302000800000000E3020008E302000818
:10012000E3020008E3020008E3020008E30200081B
:10013000E30200080000000000000000E3020008E5
:10014000E3020008E30200080000000000000000D5
:10015000000000000000000000000000000000009F
:10016000000000000000000000000000E3020008A2
:10017000E302000800000000000000000000000092
:1001800000000000E3020008000000000000000082
:10019000000000000000000000000000000000005F
:1001A0000000000000000000E3020008E302000875
:1001B000E3020008E3020008E30200080000000078
:1001C00000000000E3020008000000000000000042
:1001D000E3020008E302000800F002F800F065F80E
:1001E0000AA090E8000C82448344AAF10107DA4592
:1001F00001D100F05AF8AFF2090EBAE80F0013F07F
:10020000010F18BFFB1A43F001031847C44C00004C
:10021000E44C00000A444FF0000C10F8013B13F0CE
:10022000070408BF10F8014B1D1108BF10F8015B4F
:10023000641E05D010F8016B641E01F8016BF9D142
:1002400013F0080F1EBF10F8014BAD1C0C1B09D199
:100250006D1E58BF01F801CBFAD505E014F8016B0B
:1002600001F8016B6D1EF9D59142D6D3704700009D
:100270000023002400250026103A28BF78C1FBD8AF
:10028000520728BF30C148BF0B6070471FB504F04C
:10029000A4F89DE8030000F04DF900F015F91FBD2A
:1002A00010B5002000F0AFF910BD00F005FA1146BE
:1002B000FFF7ECFF03F02AFE00F023FA03B4FFF788
:1002C000EFFF03BC00F0F2F90948804709480047F6
:1002D000FEE7FEE7FEE7FEE7FEE7FEE7FEE7FEE7F6
:1002E000FEE7FEE704480549054A064B7047000053
:1002F00011190008D901000850070020500D0020F6
:10030000500900205009002070B50446051F00F078
:10031000EDF80068002C14BF446870BD002C18BFB5
:10032000AC423CBF20466468F8D301680A18AA4270
:1003300018BF456003D12A6805461144016028684A
:100340004119A1421CBF6C6070BD61686960216881
:100350000844286070BD2DE9F041074615460E4659
:10036000102000F016F904000AD06760C4E90265A5
:1003700000F0C0F80168216004600020BDE8F08151
:100380000120FBE7032A40F2308010F0030C00F05C
:10039000158011F8013BBCF1020F624498BF11F8BF
:1003A00001CB00F8013B38BF11F8013BA2F1040278
:1003B00098BF00F801CB38BF00F8013B11F00303F0
:1003C00000F02580083AC0F0088051F8043B083A54
:1003D00051F804CBA0E80810F5E7121D5CBF51F8F6
:1003E000043B40F8043BAFF30080D20724BF11F870
:1003F000013B11F801CB48BF11F8012B24BF00F8D5
:10040000013B00F801CB48BF00F8012B704710B545
:10041000203AC0F00B80B1E81850203AA0E81850FC
:10042000B1E81850A0E81850BFF4F5AF5FEA027CBD
:1004300024BFB1E81850A0E8185044BF18C918C02C
:10044000BDE810405FEA827C24BF51F8043B40F8CD
:10045000043B08BF7047D20728BF31F8023B48BFB2
:1004600011F8012B28BF20F8023B48BF00F8012BF0
:1004700070474FF0000200B5134694469646203967
:1004800022BFA0E80C50A0E80C50B1F12001BFF44D
:10049000F7AF090728BFA0E80C5048BF0CC05DF8B3
:1004A00004EB890028BF40F8042B08BF704748BF01
:1004B00020F8022B11F0804F18BF00F8012B704775
:1004C000704770477047000070B5064C7C44064D7D
:1004D0007D4403E0206820448047241DAC42F9D1CC
:1004E00070BD0000204A0000304A000000487047FC
:1004F000F406002000487047240700200048704799
:10050000EC060020704770477047704738B50446C6
:100510000A4600206946AFF30080002808BF38BDB6
:1005200002460099204600F09AF8012038BD0120CB
:1005300000F0B4B8F8B5AFF30080054600200C46D3
:10054000102000BF0646A819A0420DD932466946C0
:100550000020AFF30080070008BF00F09FF800986C
:10056000A04218BF0546C419FFF7C0FF0560074643
:10057000F01D20F007004619284600F069F8B44243
:1005800008BFF8BDA21B31463868BDE8F84000F04E
:1005900066B870B50646FFF7A9FF056806F10B00BF
:1005A00020F00704B4429CBF002070BD2B466A684F
:1005B000BAB11068A04210D304F1080188423CBFD0
:1005C0005068586007D35168101941601168091BC1
:1005D000016058601460101D70BD13465268002AF7
:1005E000E7D121462846FFF791FF0028DED170BDF4
:1005F00010B5FFF783FF006810BD10B50446FFF784
:100600007DFF046010BD2DE9F0410646FFF772FF43
:100610008046454613E016B1E068B0420ED120682E
:100620002860D4E90101D8F8007088472046FFF718
:100630006BFED8F80000B842EBD100E025462C68EC
:10064000002CE8D1BDE8F08100487047EC0600209E
:1006500000210160C0E90110704710207047034677
:1006600040688C46002818BF88423CBF034640685B
:10067000F8D318681844884207D00CF1030020F022
:100680000700001D411A521A0146081D0A60FFF7B3
:100690003BBE002801D000F009B8704710B500F04B
:1006A00053F8BDE81040FFF7F4BF000001491820DF
:1006B000ABBEFEE7260002007546FFF7C5FFAE465B
:1006C00005006946534620F00700854618B020B55E
:1006D000FFF708FEBDE820404FF000064FF000078E
:1006E0004FF000084FF0000B21F00701AC46ACE8DA
:1006F000C009ACE8C009ACE8C009ACE8C0098D4647
:10070000704710B50446AFF300802046BDE81040A6
:10071000FFF7D4BD70B505460C460A2000E06D1CFD
:1007200000F03AF835B128780028F8D102E0641CCE
:1007300000F032F814B120780028F8D1BDE87040FC
:100740000A2000F029B8000010B5012805D00021CA
:1007500003A0FFF7DFFF012010BD09A1F8E70000AB
:1007600053494752544D454D3A204F7574206F669A
:100770002068656170206D656D6F72790000000002
:100780003A2048656170206D656D6F727920636FE6
:10079000727275707465640008B569468DF8000062
:1007A0000320ABBE08BD7047FEE7704770B501F08F
:1007B00071F80E484FF47A714FF0FF350068B0FBC6
:1007C000F1F1491EB1F1807F0AD24FF0E02461615E
:1007D0000F21284603F097FA0020A061072020612E
:1007E0002846BDE87040002103F08DBA04000020C7
:1007F00010B5012000F068FA002808D0044800680D
:1008000000B18047BDE81040012000F055BA10BD8E
:100810004C06002070B54FF48065284600F054FA6D
:10082000234C28B1A16A01B18847284600F044FA58
:100830004FF40065284600F047FA28B1E16A01B19B
:100840008847284600F038FA4FF48055284600F0D3
:100850003BFA28B1216B01B18847284600F02CFAF9
:100860004FF40055284600F02FFA28B1616B01B112
:100870008847284600F020FA4FF48045284600F0CB
:1008800023FA28B1A16B01B18847284600F014FA79
:100890004FF40045284600F017FA002807D0E16B16
:1008A00001B188472846BDE8704000F005BA70BD28
:1008B0004C06002010B5022000F006FA002808D0EF
:1008C0000448406800B18047BDE81040022000F0B5
:1008D000F3B910BD4C06002010B5042000F0F4F967
:1008E000002808D00448806800B18047BDE8104067
:1008F000042000F0E1B910BD4C06002010B508201E
:1009000000F0E2F9002808D00448C06800B1804730
:10091000BDE81040082000F0CFB910BD4C06002003
:1009200010B5102000F0D0F9002808D00448006964
:1009300000B18047BDE81040102000F0BDB910BDE7
:100940004C06002070B5202000F0BEF91B4C28B1E9
:10095000606900B18047202000F0AEF9402000F02F
:10096000B3F928B1A06900B18047402000F0A4F994
:10097000802000F0A9F928B1E06900B1804780200B
:1009800000F09AF94FF48075284600F09DF928B1DF
:10099000216A01B18847284600F08EF94FF40075AE
:1009A000284600F091F9002807D0616A01B1884714
:1009B0002846BDE8704000F07FB970BD4C060020AD
:1009C000034900EB800001EB8000808900F002B851
:1009D00034450008002102E04008491C89B2012882
:1009E000FAD8C8B270470000F0B587B00F46054688
:1009F0001E46144618216846FFF73BFDB5F1904F9F
:100A000004D02448854203D102210FE001210DE0EA
:100A10002148854201D1042108E02048854201D1C6
:100A2000082103E01E48854232D12021002074B104
:100A30000122012C0DD00223022C0DD0032C0ED04C
:100A4000052C0FD0062C0FD0072C11D013E00190ED
:100A500010E0049201900EE0049301900BE0032259
:100A6000019207E0019204E00192CDE9032002E047
:100A70000193039004900B4800970296C26C0A43BE
:100A8000C264C06C084006906946284600F026F90A
:100A900007B0F0BD0004004800080048000C004802
:100AA0000014004800100240FEE7000030B54FF08F
:100AB000A0444B68A46800220E4D04F00104AD6808
:100AC00005F001052C4302D00122104630BD0A4D2D
:100AD00053B10C681C43D1E902310B4381681C43BC
:100AE00029400C438460F0E7836809682B400B437E
:100AF0008360EAE700010050E030C0FF10B54B68AA
:100B00008468002214F0010F02D00122104610BDAB
:100B100033B1D1E902342343C46824F0047403E000
:100B2000C368CC6823F004732343C360D1E9003168
:100B30000B43C16C6FF308010B43C364E6E730B5A8
:100B40008368002213F0010F02D00122104630BD4D
:100B5000D1E9003423438968C4684CF21805AC43DA
:100B600021430B43C360F1E770B54C6883680022F2
:100B700013F0010F02D00122104670BD002C0E4B65
:100B80000C6807D08D682C43D1E9035635432C43BC
:100B90004D6904E0CD682C43D1E9045635432C431C
:100BA000C5681D402C43C4604968036B23F00F03E4
:100BB0000B430363E0E700001CC0F0FF044908B5E5
:100BC0008A6D02438A65896D0140009108BD00006D
:100BD00000100240044908B50A6E02430A66096E15
:100BE0000140009108BD00000010024030B50368CC
:100BF0000022DB0F02D00122104630BDD1E90034C3
:100C00002343D1E902452C43096923430B4301687F
:100C1000024C21400B430360EEE700000F7E00FF13
:100C2000F0B5002501F010030126946807689E4086
:100C3000BE430FD054B30668C02C0DD040F6FC71F3
:100C400099408E4311682143D468214399400E4353
:100C5000066023E001252DE0C0249C40A6432643E6
:100C60000660046E40F60F769E40B44316685768DF
:100C7000B608BF0846EA07269E4034430466C1F31F
:100C8000C01100EB8101D4688C6507E00168FC2489
:100C90009C40A14314689C4021430160C46B072120
:100CA00099408C43D2E9041692693143114399402B
:100CB0000C43C4632846F0BD02490A6882430A60B7
:100CC000704700000004014003490968884301D0CF
:100CD000002070470120704700040140F0B50A6809
:100CE0000F2692FAA2F2B2FA82F303248AE00125D7
:100CF0009D402A407ED04D68012D01D0022D20D18B
:100D00008D68876892FAA2FCBCFA8CFC4FEA4C0E04
:100D100004FA0EFC27EA0C0792FAA2FCBCFA8CFC3F
:100D20004FEA4C0C05FA0CF52F438760CF680D682D
:100D3000D0F804C02CEA050C7D434CEA050CC0F841
:100D400004C00F69D0F80CC092FAA2F5B5FA85F587
:100D50004FEA450E04FA0EF52CEA050C92FAA2F5BC
:100D6000B5FA85F56D00AF404CEA070CC0F80CC031
:100D70004D68022D2FD1FF2A15D8D1F814C0056A6D
:100D800092FAA2F7B7FA87F7BF0006FA07F7BD4352
:100D900092FAA2F7B7FA87F7BF000CFA07FC45EA08
:100DA0000C05056217E0D1F814E0476A150A95FAB8
:100DB000A5FCBCFA8CFC4FEA8C0C06FA0CFC95FAEC
:100DC000A5F5B5FA85F5AD0027EA0C070EFA05FE84
:100DD00047EA0E0747624D68076892FAA2FCBCFA20
:100DE0008CFC4FEA4C0C04FA0CFE27EA0E0792FA30
:100DF000A2F200E005E0B2FA82F2520095402F43E1
:100E000007605B1C0A6832FA03F57FF470AF0020BC
:100E1000F0BD4FF47A71B0FBF1F14FF0E020491EC4
:100E200041610021816105210161704730B54A6847
:100E300004680023E40F02D00123184630BD0C4C97
:100E4000602A0AD00D681543D1E902210A430168DE
:100E5000154321400D430560EFE70A6889680A439E
:100E60000168214041F060010A430260E5E70000AB
:100E700013F7F9FF10B50024C02823D11248D0F889
:100E8000880000F0C00040F440004038B0F5400059
:100E90000AD040280CD080280FD000F0C1FC00F010
:100EA0008FFC00F09DFC01E000F0BAFC044609E074
:100EB00000F068F830B1054C04E000F06BF808B1C0
:100EC0004FF40044204610BD001002400024F400FE
:100ED00070B5002429492A4D4FF40046032804D058
:100EE0000C281AD030282FD040E0D1F888006FF4B9
:100EF000403100F0030040F4403040180AD001288F
:100F000036D002282ED000F08BFC00F059FC00F007
:100F100077FC17E000F084FC14E0D1F8880000F0C2
:100F20000C0040F44020001FB0F54020F2D004280F
:100F30001ED0082816D000BF00F072FC00F040FC64
:100F400000F04EFC044611E0D1F8880000F03000BB
:100F500040F440101038B0F54010DBD0102807D016
:100F60002028E9D100F016F800B13446204670BDC3
:100F700000F008F80028F9D02C46F7E700100240EE
:100F80000024F40002480068C0F38020704700008D
:100F9000001002400248D0F89000C0F340007047B3
:100FA0000010024001490860704700000400002062
:100FB00030B50A7B8B681F4C1A434B6822F4806261
:100FC0001A430B6822F400621A43CB8922F4805240
:100FD0001A430B6922F400521A43CB6A22F480426E
:100FE0001A4322F400421A43114B984201D0A04206
:100FF00007D14D6922F470222A438D6922F0805274
:101000002A43984201D0A0420FD14B6A22F47002C9
:101010001A43CB6922F080721A430B6A22F00072E5
:101020001A43896A22F000520A434264002030BD0C
:10103000002C0140003401402DE9F0430268224BAE
:10104000224D234E234C4FF08049984207D048450B
:1010500005D0A84203D0B04201D0A04203D14F68CE
:1010600022F070023A431C4FDFF870C0DFF8708046
:1010700098420DD048450BD0A84209D0B04207D0C5
:10108000A04205D0B84203D0604501D0404503D10D
:10109000CD6822F440722A4302608A68C2620A88DC
:1010A0008262984207D0A04205D0B84203D0604582
:1010B00001D0404501D109690163416941F0010155
:1010C00041610020BDE8F083002C01400004004095
:1010D000000800400034014000400140004401404D
:1010E00000480140012922D0042922D0102922D011
:1010F000402922D0B1F5807F21D0B1F5806F20D07A
:10110000B1F5805F1FD0B1F5804F1ED0B1F5803FA3
:101110001DD009210F4A1830525C104402680D4B53
:101120000A335B5C082199400A4302607047002142
:10113000F0E70121EEE70221ECE70321EAE70421D1
:10114000E8E70521E6E70621E4E70721E2E70821D1
:10115000E0E70000F44D00082DE9F0478C4601213E
:10116000BCF5805F25D009DCBCF1010F14D0BCF1C7
:10117000100F15D0BCF5807F16D116E0424B434CC2
:10118000434D444E444F4FF00009BCF5803F14D00E
:10119000BCF5801F74D141E0114600F07FF902E0F8
:1011A000114600F0C7F901466AE0114600F012FA54
:1011B000F9E7114600F05CFAF5E7016A21F48031A5
:1011C0000162D0F820C0016DDFF8D0802CF4003C23
:1011D00001EA0801D2F80080984241EA0801B2F819
:1011E00010804CEA084CB2F804802CF4803C4CEAA5
:1011F000084C07D0A04205D0A84203D0B04201D08D
:10120000B84206D14368946923F4803343EA042347
:1012100043600165D168826C81642EE0016A21F42B
:1012200080110162D0F820C0016DDFF874802CF4C9
:10123000001C01EA0801D2F80080984241EA082126
:10124000B2F810804CEA085CB2F804802CF4801CE0
:101250004CEA085C07D0A04205D0A84203D0B042B7
:1012600001D0B84206D14368946923F4802343EA4D
:10127000842343600165D168C164C0F820C0494639
:101280000846BDE8F0870000002C01400034014012
:101290000040014000440140004801408FFFFEFF34
:1012A000FF8FFFFE2DE9F041044600680D46012640
:1012B00010F0010F4CD12969A868EA6908436969EF
:1012C0001143084321682B4A114008432060E86815
:1012D000616821F4405101436160A869A16821F46B
:1012E00040710143A1602448844201D1032008E0F9
:1012F0002248844201D10C2003E02148844203D1DA
:101300003020FFF7E5FD05E01E48844219D1C020DA
:10131000FFF7B0FDA8B1696899B12A680026EB69AA
:101320000B2A0ED8184FD2B2B3F5004F57F822202F
:10133000B0FBF2F00FD000EB5100B0FBF1F080B247
:10134000E0602888E16A80B221F00F010143E16288
:101350003046BDE8F081400000EB5100B0FBF1F0F9
:1013600081B24FF6F07201EA0200C1F34201084374
:10137000E6E70000F369FFEF003801400044004059
:1013800000480040004C0040EC440008F0B58FB02D
:10139000202106A8FFF76DF818216846FFF769F8C5
:1013A0003A4850F8881F002421F00C0140F83C19FD
:1013B000C16841F40031C160C16801F400310E918F
:1013C000016841F0020101600068022500F002009E
:1013D0000E9008200090CDE9015407262C4FCDE94E
:1013E0000446694638460394FFF778FC10200090C5
:1013F000CDE90154CDE90446694638460394FFF728
:101400006DFC4FF4E130CDE906400C20CDE90A40F7
:10141000089409940C940D941E4C06A92046FFF7DD
:1014200041FF002204F1080050E8001F62F35F71E1
:1014300040E80013002BF7D1002104F1080000BFA1
:1014400050E8002F22F0606242EA416240E8002347
:10145000002BF5D1206820F000502060606820F457
:1014600090406060A06820F02A00A060206840F0F2
:1014700001002060E069C0F340500028FAD0E06924
:10148000C0F380500028F5D00FB0F0BD001002402E
:101490000004004800440040FEE7FEE730B5026A61
:1014A00022F001020262036A446882691B4D22F045
:1014B00003022A400D6823F002032A430D692B43DF
:1014C0004D6823F001032B43154DA8420BD0154D59
:1014D000A84208D0144DA84205D0144DA84202D00D
:1014E000134DA84212D14D6923F0080343EA850346
:1014F0008D6823F0040343EA85038D6924F4807426
:101500002C43CD6924F4007444EA450444608261AC
:10151000C96841630362002030BD00008FFFFEFFF9
:10152000002C0140003401400040014000440140D3
:101530000048014030B5026A22F010020262056ADA
:10154000426883691D4C23F4407323400C6843EACE
:10155000042425F020030D6943EA05134D6823F0A8
:10156000100343EA0513164DA8420BD0154DA842AF
:1015700008D0154DA84205D0144DA84202D0144DF4
:10158000A84213D14D6923F0800343EA85138D6887
:1015900023F0400343EA85138D6922F4806242EA16
:1015A0008502CD6922F4006242EAC502426084618C
:1015B000C96881630362002030BD0000FF8FFFFE19
:1015C000002C014000340140004001400044014033
:1015D0000048014030B5026A22F480720262046A57
:1015E0004368C2691C4D22F003022A400D6824F4AE
:1015F00000742A430D6944EA05244D6824F480747C
:1016000044EA0524154DA8420BD0154DA84208D038
:10161000144DA84205D0144DA84202D0134DA84243
:1016200013D14D6924F4006444EA85248D6824F4C0
:10163000806444EA85248D6923F4805343EA0513CA
:10164000CD6923F4005343EA45134360C261C9687E
:10165000C1630462002030BD8FFFFEFF002C0140FB
:101660000034014000400140004401400048014076
:1016700030B5026A22F480520262056A4268C36988
:101680001D4C23F4407323400C6843EA042425F4E2
:1016900000530D6943EA05334D6823F4805343EA50
:1016A0000533164DA8420BD0154DA84208D0154D54
:1016B000A84205D0144DA84202D0144DA84213D11F
:1016C0004D6923F4004343EA85338D6823F4804356
:1016D00043EA85338D6922F4804242EA8512CD695E
:1016E00022F4004242EAC5124260C461C968016442
:1016F0000362002030BD0000FF8FFFFE002C014080
:1017000000340140004001400044014000480140D5
:101710002DE9F04716460C468046702811D2DFF8B6
:10172000949008EB880709EB8705A87B48B144B182
:101730003EB1DFF884A004FB06F0DAF8001088421E
:1017400002D90020BDE8F0870721404602F05EFC88
:1017500059F827704046FFF733F90346404600F03A
:101760001BF93A6A014693FAA3F0B0FA80F04FEA07
:10177000800C0F2000FA0CF0824393FAA3F0B0FA29
:1017800080F0800081400A433A62DAF8000069681C
:10179000B0FBF4F0B0FBF6F00A6822F001020A6038
:1017A000401E82B2641EAB7BA1B2686800F020F9D3
:1017B000A87BC7E7344500080400002070470000FC
:1017C00005498968054A01F0F0010909515C01F0F9
:1017D0001F01C84070470000001002401C4500086F
:1017E00005498968054A01F4E06102EB1121097895
:1017F00001F01F01C8407047001002402C4500084E
:1018000005498968054A01F4605102EBD121097844
:1018100001F01F01C8407047001002402C4500082D
:101820001549886800F00C031448042B0DD04210B1
:10183000082B09D00C2B08D1CB6803F00303022B33
:1018400005D0032B03D101E0104670471046CA684B
:10185000C2F306224243C868C96800F0F0030120C1
:1018600000EB1313B2FBF3F201F0C06100EB516027
:101870004000B2FBF0F07047001002400024F4007A
:101880007047000002480168491C01607047000071
:101890000800002030B51A4881681A4B01F00C028C
:1018A0001949042A05D05C10082A04D00C2A1BD13F
:1018B00003E00B6018E00C6016E0C26802F003055C
:1018C000C268C2F30312521C022D16D0B4FBF2F20E
:1018D000C368C3F306235343C268C2F34162521C78
:1018E0005200B3FBF2F20A608068084AC0F30310AA
:1018F000105C0A68C2400A6030BDB3FBF2F2E7E751
:10190000001002400024F400040000201C450008E0
:101910000248016841F470010160704788ED00E001
:1019200010B5064C206910F0010F05D0044800687E
:1019300080476FF00100206110BD0000002C0140C5
:101940008C06002002496FF001000861704700001A
:10195000002C014010B54FF08044206910F0010FB9
:1019600005D00348406880476FF00100206110BD3A
:101970008C06002010B5064C206910F0010F05D030
:101980000448806880476FF00100206110BD0000AE
:10199000000400408C06002001460F4A01EB810143
:1019A00002EB810100204968B1F1804F08D00B4A59
:1019B000914205D00A4A914202D00A4A914201D18D
:1019C00001207047084A914201D105207047074A1B
:1019D0009142FBD106207047344500080040014089
:1019E000004401400014004000480140002C014028
:1019F000F0B50F468DB01E4615460446012100F095
:101A00004FF8ADF8205000250A970B9508A92046FD
:101A10000995FFF711FB70200090012001900290C2
:101A20000220C70104A9072E81E8A100079515D25D
:101A3000DFE806F014040B1E25292D006A4601215B
:101A40002046FFF789FB012105E06A461021204668
:101A5000FFF782FB10212046FFF744FB206840F08F
:101A600001002060606C40F4004060640DB0F0BD87
:101A70006A4639462046FFF76FFB3946EBE76A4670
:101A80004FF4805506E06A464FF4803502E06A461E
:101A90004FF4801529462046FFF75EFB2946DAE71A
:101AA0001B49884201D1C0142FE0B0F1804F04D00F
:101AB0001849884203D102200FE001200DE01649A9
:101AC000884201D1042008E01449884201D1102045
:101AD00003E01349884202D12020FFF76FB8114973
:101AE000884201D1401410E00F49884202D14FF4DE
:101AF00080300AE00D49884202D14FF4003004E002
:101B00000B49884203D14FF48020FFF763B8704738
:101B1000002C01400004004000080040001000407C
:101B200000140040003401400040014000440140E6
:101B300000480140014800F063BB00002C04002075
:101B4000014800F05DBB0000C8040020FEE7000073
:101B500010B52DED028B9FED088AF0EE480A02F0D9
:101B6000E2F8B5EEC00AF1EE10FA01DA30EE080A3A
:101B7000BDEC028B10BD0000DB0FC94000EE900AE7
:101B8000F8EEE00A20EE200A704700002F4810B55A
:101B9000016821F00F0141F004010160016801F0CA
:101BA0000F010429FAD12A4850F8801F21F48071CE
:101BB0000160284C206840F4803020602068C0F329
:101BC00040400028FAD0E16845F21350224A114003
:101BD0000843E060E06840F08070E060206840F01A
:101BE000807020602068C0F340600028FAD0A068B0
:101BF00040F00300A060802001F014F9A06800F01C
:101C00000C000C28FAD11548016841F08071016080
:101C10001348016841F00101016000214160416801
:101C20006429FCD3002001F0FDF8A06820F4E060F6
:101C3000A060A06820F46050A0600A4C2046FFF726
:101C4000E8F82046BDE81040FFF7ACB9002002409C
:101C500000700040001002400C80FFF9FCED00E035
:101C6000001000E080FE210ADFED080A084910B5E7
:101C700030EE200A10EE100A884203DDDFED050A7F
:101C800030EE600A00F008F810BD0000DB0FC93F1D
:101C9000DB0FC940DB0FC940DFED200A204920EEF1
:101CA000200ABCEEC00A10EE100AC3B2C0F307202F
:101CB000402805D231F8102001EB4000408820E098
:101CC000802808D2C0F18002C0F17F0031F81220D4
:101CD00031F8100015E0C02809D201EB4000A0F552
:101CE000805130F8FE0CB1F8001F4A4208E0C0F500
:101CF0008072C0F1FF0031F8122031F8100052421A
:101D00004042801A584302EB202000EE100ADFED1B
:101D1000050AB8EEC00A20EE200A704783F9224671
:101D2000E4000020000000380E4810B5B3EE080AA9
:101D300080ED020A00F03CF90A49A1F5BA7001F001
:101D40006DFA0948B0EE080A032180ED160A80F802
:101D5000691001F055FDBDE810404FF47A7000F0B5
:101D600005B80000040300209001002002F0B2B882
:101D700002F02EB970B50C462DED028B0546B0EE83
:101D8000408AFFF789FF85ED000AB0EE480AFFF7A9
:101D90006BFF84ED000ABDEC028B70BD10B580EDC9
:101DA000000A9FED050A044680ED020AFFF7E0FFF6
:101DB0006060204610BD00000000000010B5044621
:101DC0002DED028BB0EE408AFFF7D2FF6168DFEDA8
:101DD000190A411A00EE101AB8EE400A20EE200A45
:101DE000B5EEC00AF1EE10FA02D29FED130A0CE034
:101DF00010EE101A114A914207DD84ED028AB0EE0E
:101E0000480A6060BDEC028B10BD94ED001A31EE03
:101E1000000AC1EE000A94ED020AB7EE001A20EEA5
:101E2000200A71EE600A00EE880A84ED020A606002
:101E3000E8E70000BD3786356F12833A9A99993EDC
:101E40009FED040A80ED070A80ED060A80ED050A81
:101E5000704700000000000010B5044680EC050A41
:101E60009FED060A80ED050A80ED060A80ED070A5F
:101E7000FFF77EFF2062204610BD0000000000003A
:101E800010B504462DED028BB0EE408AFFF770FFCF
:101E9000216A411A00EE101AB8EE400ADFED3F0A3F
:101EA00060EE200AF5EEC00AF1EE10FA04D910EE49
:101EB000901AB1F17C5F01DDDFED390A94ED011A72
:101EC00094ED000AF6EE001A21EE201A94ED053A80
:101ED00060EE082A94ED070A21EE211A73EE081A23
:101EE00001EE210A94ED041AF1EE411AF4EEC01A43
:101EF000F1EE10FA02DDB0EE610A06E0B4EEC01AAF
:101F0000F1EE10FA01D2B0EE410A38EE433AB0EEEB
:101F1000402A94ED020A72EE822A20EE033A83EE02
:101F2000200A32EE800AF4EEC01AF1EE10FA02DD59
:101F3000B0EE610A06E0B4EEC01AF1EE10FA01D27A
:101F4000B0EE410AD4ED031AF5EEC01AF1EE10FA24
:101F50001ADD94ED061A30EE413AC3EE202AF4EE73
:101F6000E21AF1EE10FA04D2B0EE410A01EEA00A34
:101F70000AE0B1EE613AB4EEE23AF1EE10FA03DDB6
:101F8000B0EE410A01EEE00A84ED072A84ED060A6C
:101F900084ED058A2062BDEC028B10BDBD3786350D
:101FA0006F12833A00F8481F427083707047000038
:101FB00010B50446006C43F23901C84203D0C0B2E8
:101FC000052102F023F894ED030A134910EE100ADC
:101FD000884206D0D4ED020AB4EEE00AF1EE10FA1F
:101FE00003DD94ED020A84ED030A002084F8480022
:101FF00084F849009FED090A84F84A0084ED090A33
:1020000084ED080A84ED070A6069401C00D00120B5
:102010002074002010BD000000E440C60000000055
:1020200070B50446006C43F23901C84203D0217EEA
:10203000C0B201F059FF206801231A4645691946CC
:102040002046A84720689FED050A01692046BDE8A3
:102050007040B0EE401AF0EE400A08470000000061
:1020600010B504462DED028BDFED4E2AB5EEC00A09
:10207000F1EE10FA02D2B0EE620A08E0D4ED031AD3
:10208000F4EEC01AF1EE10FA01D2B0EE610AF5EEEC
:10209000C00AF1EE10FA02D2F0EE620A08E0D4EDC6
:1020A000031AF4EEE01AF1EE10FA01D2F0EE610A32
:1020B000B5EEC01AF1EE10FA02D2B0EE621A08E0E4
:1020C000D4ED031AF4EEC11AF1EE10FA01D2B0EE1B
:1020D000611A94ED022A4FF07E51C0EE021AF5EE1D
:1020E000C01AF1EE10FA02D2F0EE621A05E011EE1B
:1020F000900A884201DDF7EE001A80EE820AC4EDF4
:10210000071AB5EEC00AF1EE10FA02D2B0EE620A7A
:1021100005E010EE100A884201DDB7EE000A84EDFA
:10212000080A81EE020AB5EEC00AF1EE10FA02D2F8
:10213000B0EE620A05E010EE100A884201DDB7EE4B
:10214000000A84ED090A11EE900A203402F0D4F856
:102150009FED158B53EC182B01F0D0FF01F0A0FF81
:1021600081B2207A01F078FF206802F0C5F853ECC4
:10217000182B01F0C3FF01F093FF81B2207C01F026
:102180006BFF606802F0B8F853EC182B01F0B6FF53
:1021900001F086FF81B2207EBDEC028BBDE81040CD
:1021A00001F05ABF000000000000000000FEAF4038
:1021B000F0B505ACB2EE080A94E8E010002404740F
:1021C0004461012404760A4C40F8284BA0E8EE1044
:1021D000094900ED0F0A9FED070A00ED0E0A9FED79
:1021E000070A40F8401C80ED000A4438F0BD0000AA
:1021F000384E000800E440C6C7CFFFFF0AD7A33C13
:1022000030B40169CA69C2F34012002A17D00A68C3
:10221000C2F34012002A12D0496ACAB2018B438B22
:10222000491C01F07F018B4204D0048B00F11C0398
:10223000E25401834069002801D030BC004730BC23
:1022400070470000044AD269C2F3C0120AB10069A3
:1022500081620120704700000038014000224FF4E5
:102260007A73C0E90123024B0360C0E9041270478E
:10227000584E0008014603480068002801D000F0CD
:10228000BDBE704768010020F0B597B000241494DB
:102290001594182106A81694FEF7EBF811941294E1
:1022A000139410940C940D940E94182168460F9476
:1022B000FEF7DFF8624800F011FE4FF4005000F026
:1022C000F5FD012000F0F2FD022000F0EFFD0126F7
:1022D0000325CDE900654FF09047694638460494E0
:1022E000FEF7FCFC0420CDE900056946049438465D
:1022F000FEF7F4FC0220CDE90005524F6946049434
:102300003846FEF7EBFCB003CDE9000569460494BE
:102310003846FEF7E3FCF003CDE914404FF0A0454A
:1023200014A928461694FEF70AFCCDE9064608943F
:1023300009940A9406A928460B94FEF715FC00217F
:10234000284600F0DBFD286940F2034188432861FC
:10235000109410A93C481194FEF7A8FB84200C901F
:10236000CDE90D640CA928460F94FEF7C7FBE86879
:102370003649084040F00040E860E86C20F4C07046
:1023800040F08000E864A86831490840A860A86867
:102390003049084040F08050A8602F482F4900681D
:1023A000B0FBF1F000EB800080000A21B0FBF1F1FE
:1023B00000E0491E0029FCD1294C0921224628466B
:1023C00000F0C2FD01222146284600F0DBFD7F22FD
:1023D0002146284600F0AAFD224C40F20F11224669
:1023E000284600F0B1FD01222146284600F0CAFD32
:1023F0007F222146284600F099FD1B4C06212246EB
:10240000284600F0AEFD04222146284600F0BAFD21
:102410007F222146284600F089FD144C0C212246DB
:10242000284600F09EFD04222146284600F0AAFD21
:102430007F222146284600F079FD17B0F0BD00004C
:1024400001001C000004004800030050FFFFDF7F74
:10245000C0FFFF5FC0FFFF7F04000020400D0300AE
:102460000800900C00106032020030042000F014CC
:1024700030B593B000251095119518216846129536
:10248000FDF7F7FF06950795089518210AA8099505
:10249000FDF7EFFF404800F021FD4FF4005000F041
:1024A00005FD012000F002FD40200A9003200B9062
:1024B0000AA90E954FF09040FEF710FC4FF4004033
:1024C000CDE91050354C10A920461295FEF737FB88
:1024D0000195029503950495694620460595FEF7FA
:1024E00043FB0021204600F009FD206940F2034132
:1024F00088432061842006900120CDE9070506A9C4
:1025000020460995FEF7FAFAE0682549084040F0B0
:102510000040E060E06C20F4C07040F08000E064B7
:10252000A06820490840A060A0681F49084040F00A
:102530008050A0601D481E490068B0FBF1F000EB20
:10254000800080000A21B0FBF1F100E0491E002963
:10255000FCD1184D09212A46204600F0F5FC012245
:102560002946204600F00EFD7F222946204600F035
:10257000DDFC114D40F20F112A46204600F0E4FC2C
:1025800001222946204600F0FDFC7F2229462046F4
:1025900000F0CCFC13B030BD01001C000001005065
:1025A000FFFFDF7FC0FFFF5FC0FFFF7F0400002051
:1025B000400D03000800900C00008CCB30B587B0B4
:1025C0001C216846FDF755FF4FF4802000F06EFC9B
:1025D000184D194C00222946204600F017FC002017
:1025E000022104910090019002900121CDE9051093
:1025F0006A4629462046FEF713FB206820F00200B9
:102600002060E06B20F48070E0630C4D00222946CE
:10261000204600F0FBFB6A4629462046FEF700FBF9
:10262000206820F400302060E06B20F08070E063D0
:1026300007B030BD0100110200100050F200423519
:1026400010B500F06BFC0122032100F08CFB014669
:10265000262000F078FB262000F068FB00F05EFCEE
:102660000022032100F07FFB01460B2000F06BFBF2
:102670000B2000F05BFB00F051FC0022032100F076
:1026800072FB01461C2000F05EFB1C2000F04EFB9C
:1026900000F044FC0122042100F065FB01461820F3
:1026A00000F051FB182000F041FB00F037FC002245
:1026B000114600F058FB0146192000F044FB192098
:1026C00000F034FB00F02AFC0022022100F04BFB5A
:1026D0000146122000F037FB122000F027FB00F02B
:1026E0001DFC0022032100F03EFB0146282000F0E3
:1026F0002AFBBDE81040282000F018BB2DE9F04768
:10270000A0B014211AA8FDF7B4FE202106A8FDF7F9
:10271000B0FE30210EA8FDF7ACFE18216846FDF78B
:10272000A8FE4FF40067384600F0CCFB40201B9019
:1027300040F64850FE10CDE91C060120784D0024DB
:102740001E90ADF868401AA92846FEF775FC286867
:1027500020F0800028600121284600F06DFB6020F9
:10276000CDE9060440F2A460CDE908400A940B9438
:102770000C9406AA012128460D94FEF7EDFC0121D8
:10278000284600F009FB1021284600F055FB06AA58
:1027900010212846FEF7E0FC1021284600F0FCFA44
:1027A0003146284600F048FB06AA31462846FEF787
:1027B000D3FC3146284600F0EFFA4FF4805A5146D8
:1027C000284600F039FB7020069040F647500990EB
:1027D00006AA51462846FEF7BFFC5146284600F09F
:1027E000DBFAA8684F49084040F01000A860A868CC
:1027F0004D49084040F00600A860E86820F040001D
:10280000E860E86820F48040E8606868474908406C
:1028100040F070006860686820F470006860A86824
:1028200020F08000A860002302220421284600F046
:10283000B8FB042200231146284600F0B2FB002317
:1028400010220421284600F0ACFB4FF48069CDE94A
:102850000E7910963004CDE9144004278DF84470A9
:102860004FF40058ADF84640CDE912844000169070
:102870004FF44010CDE917040EA928461994FEF72D
:1028800097FB042000F012FB022000F00FFB012058
:1028900000F00CFB0225CDE90085CDE90254CDE91D
:1028A000045769462248FEF719FAA803CDE9000546
:1028B000CDE90254CDE9045769461E48FEF70EFAE9
:1028C000CDE900650626CDE90254CDE904564FF066
:1028D000904769463846FEF701FA2802CDE900051F
:1028E000CDE90254CDE9045669463846FEF7F6F9BB
:1028F000CDE90095CDE90254CDE904566946384644
:10290000FEF7ECF9CDE900A5CDE90254CDE9045676
:1029100069463846FEF7E2F920B0BDE8F0870000CE
:10292000002C01408FFFCFFFF8FFFEFF8FFFFFFD60
:10293000000800480004004810B58CB01421684617
:10294000FDF797FD182105A8FDF793FD012000F084
:10295000ADFA0220059003200024069005A90994F1
:102960004FF09040FEF7BAF94020CDE900400294C4
:10297000039469460D480494FEF738F90C480D4954
:102980000068B0FBF1F0C821484300E0401E0B9006
:102990000028FBD10848016821F400110160001FE4
:1029A000016821F4001101600CB010BD000201406B
:1029B0000400002080841E000404014010B58CB087
:1029C00014216846FDF755FD182105A8FDF751FDB6
:1029D000012000F06BFA802005900320002406906F
:1029E00005A909944FF09040FEF778F94020CDE911
:1029F00000400294039469460D480494FEF7F6F8EB
:102A00000C480D490068B0FBF1F0C821484300E0D4
:102A1000401E0B900028FBD10848016821F480017A
:102A20000160001F016821F4800101600CB010BD3D
:102A3000040201400400002080841E0004040140C0
:102A400010B58CB014216846FDF713FD182105A8B8
:102A5000FDF70FFD022000F029FA01200590032068
:102A60000024069005A909941248FEF737F9402082
:102A7000CDE900400294039469460F480494FEF7A0
:102A8000B5F80E480E490068B0FBF1F0C821484384
:102A900000E0401E0B900028FBD10A48016821F09D
:102AA00080410160001F016821F0804101600CB08D
:102AB00010BD0000000400480C020140040000208A
:102AC00080841E000404014038B5264C4FF47A700F
:102AD0000090206820F001002060606822490840D2
:102AE00060600121204600F0A7F91021204600F087
:102AF000A3F9A115204600F09FF9A114204600F08B
:102B00009BF9606940F00100606140F647506062E7
:102B10006FF08000206120696FF48071C0F30020A5
:102B200006E021610098401E00902069C0F300205B
:102B3000009A0AB10028F4D1E06840F08000E0601B
:102B4000206A40F2555108432062E06840F00200DC
:102B5000E060206840F001002060606C40F40040BC
:102B6000606438BD002C01408FFFFFFD70B58AB056
:102B70000024069407940894182168460994FDF7E8
:102B800078FC012000F092F902200325CDE9000530
:102B90004FF09046694604943046FEF79FF80420B3
:102BA000CDE90005694604943046FEF797F8082001
:102BB000CDE90005694604943046FEF78FF80E48CB
:102BC0000894CDE906400D4C06A92046FEF72EF9E3
:102BD000A06920F03800A061206820F48070206097
:102BE000206820F4E03040F440402060206820F06D
:102BF000100020600AB070BD4000020000030140D8
:102C000070B58AB000240694079408941821684689
:102C10000994FDF72EFC012000F048F9202003253F
:102C2000CDE900054FF09046694604943046FEF722
:102C300055F84020CDE90005694604943046FEF77A
:102C40004DF88020CDE90005694604943046FEF732
:102C500045F80E480894CDE906400D4C06A92046DB
:102C6000FEF7E4F8A06920F03800A061206820F4A5
:102C700080702060206820F4E03040F44040206004
:102C8000206820F0100020600AB070BD40000200F3
:102C90000403014070B58AB0002406940794089498
:102CA000182168460994FDF7E4FB022000F0FEF8C5
:102CB00001200325CDE90005194E694604943046EC
:102CC000FEF70CF80220CDE9000569460494304671
:102CD000FEF704F80420CDE9000569460494304667
:102CE000FDF7FCFF0F480894CDE906400E4C06A9FD
:102CF0002046FEF79BF8A06920F03800A06120680C
:102D000040F480702060206820F4E03040F44040BF
:102D10002060206820F0100020600AB070BD000024
:102D2000000400484000020008030140002809DBBD
:102D300000F01F02012191404009800000F1E020D5
:102D4000C0F8001170470907090E002804DB00F1E4
:102D5000E02080F80014704700F00F0000F1E02040
:102D600080F8141D704730B500F00703C3F1070465
:102D7000042C00D90424181D072801D2002300E0E8
:102D8000DB1E012505FA04F0401E084098409D40D6
:102D90006D1E1540284330BD012922D0042922D0C0
:102DA000102922D0402922D0B1F5807F21D0B1F561
:102DB000806F20D0B1F5805F1FD0B1F5804F1ED05D
:102DC000B1F5803F1DD009210F4A1830525C1044E4
:102DD00002680D4B0A335B5C042199408A43026010
:102DE00070470021F0E70121EEE70221ECE7032123
:102DF000EAE70421E8E70521E6E70621E4E7072101
:102E0000E2E70821E0E70000D844000810B5C36BF2
:102E100001F010014FF400748C40A3438A40134327
:102E2000C36310BD03498A6822F0F00202438A603E
:102E30007047000000100240012922D0042922D04E
:102E4000102922D0402922D0B1F5807F21D0B1F5C0
:102E5000806F20D0B1F5805F1FD0B1F5804F1ED0BC
:102E6000B1F5803F1DD009210F4A1830525C104443
:102E700002680D4B0A335B5C082199400A430260EB
:102E800070470021F0E70121EEE70221ECE7032182
:102E9000EAE70421E8E70521E6E70621E4E7072160
:102EA000E2E70821E0E70000D8440008044908B53B
:102EB000CA6C0243CA64C96C0140009108BD00009D
:102EC00000100240044908B50A6E02430A66096E02
:102ED0000140009108BD000000100240064A10B5F4
:102EE00052F8881FC0F3044303249C40C0B2A1439E
:102EF00098400143116010BD00100240D0F8C0207E
:102F00006FF30D020A43C0F8C020026922F4803238
:102F100001B1012142EA01410161704702480068A4
:102F2000C0F30220704700000CED00E0054BC1F338
:102F300012019A4250F8B02F01D10A4300E08A43AF
:102F40000260704700007F4010B5C36C01F01F01A4
:102F50001F248C40C2F38462A3438A401343C3649A
:102F600010BD0C2303EA911310B51844036B01F054
:102F70001F011F248C40C2F38462A3438A40134381
:102F8000036310BD042303EAD15310B51844436909
:102F9000C1F3045107248C40A3438A401343436187
:102FA00010BD30B50844016E92FAA2F4B4FA84F46C
:102FB00004F01F054FF4007492FAA2F2AC40B2FA8A
:102FC00082F202F01F02A14393401943016630BD13
:102FD00002685268104702681268104770B50C46C4
:102FE0000646002505E03068641C026830469047BC
:102FF0006D1C21780029F6D1284670BD70B50546B4
:10300000FFF7E6FF0446284600F002F8204470BDB2
:1030100070B505460D21FFF7DEFF04460A2128465C
:10302000FFF7D9FF204470BD10B5044C046080F850
:10303000543080F8551080F8562010BD7C4E0008A2
:1030400003490160002180F8551080F85610704740
:103050007C4E000810B50446D0F8500198B10168C4
:103060004968884704F59070FEF7A8FE94F93C0182
:10307000F0EE400A01EE100A94ED4D0AB8EEC11AC6
:1030800011EE200A10BD94ED030A10BD10B50446E0
:10309000D0F8500178B10168C968884704F58A7092
:1030A000FEF78CFE94F93C0100EE900AF8EEE00A7F
:1030B00020EE200A10BD94ED050A10BD10B551494F
:1030C0002DED028B9FED508A0160002480ED028A75
:1030D00080F8644080F86540012180F86710B2EE06
:1030E000082AF0EE481AB0EE481ADFED488AB0EE32
:1030F000080A6C30F0EE680AFEF7AEFEB2EE082A5F
:10310000F0EE481AB0EE481AF0EE680AB0EE080A7F
:103110002430FEF7A1FEDFED3E8A2430B0EE680ACF
:10312000FEF73CFEB0EE680A0C30FEF737FEB2EE5A
:10313000082ADFED381AB0EE481AF2EE040AB6EEAD
:10314000000A0C30FEF788FEB3EE042AF0EE481AAF
:10315000B0EE481AF0EE480AB3EE040A2430FEF747
:103160007BFEB0EE680A2430FEF718FEB0EE480A87
:103170000C30FEF713FE40F80C4F9FED270A446019
:1031800080ED030A0474447464214161047644763A
:10319000092181760421C161632180F82010B3EEFA
:1031A000040A046300ED330AB2EE080A00ED350AA2
:1031B000B0EE000A00ED340AB7EE000A00ED3A0A5C
:1031C000B0EE080A00ED3B0A00F8C64C00ED4A8A52
:1031D00000ED428A00ED418A00ED458A00ED3F8A0C
:1031E00000ED408A00ED3E8A00ED3D8A00ED3C8A0C
:1031F000C46280ED028A44628462A0F59670BDECE0
:10320000028B10BD8C4E00080000000000009643A9
:103210000AD7A33B00007A4400E440C6C0F860111E
:103220007047000070B504462DED028BB0EE408A69
:10323000FEF79EFD0546D4F87001281A00EE100A2C
:10324000B8EE400ADFED510A20EE200AB5EEC00AC2
:10325000F1EE10FA04D910EE100AB0F17C5F01DD36
:103260009FED4B0A94ED032A94ED181A78EE421A5A
:1032700061EE000AF0EEE12AF0EEE00ADFED458AA9
:10328000F4EEE02AF1EE10FA1EDDF5EEC01AF0EED3
:10329000C10AF1EE10FA02D24FF0FF3007E0F5EE6E
:1032A000C01AF1EE10FA01DD012000E0002001EE6D
:1032B000900AF8EEE11A60EEA10A00EE802A84ED91
:1032C000032A84ED051A03E084ED038AC4ED058A20
:1032D0003149A06C94ED168A88423ED094ED0D0AD7
:1032E00000F00EFDD4ED170A94ED121A00EE810ADB
:1032F000D4ED160AB1EE601AB4EEC10AF1EE10FA7E
:1033000010D394ED0D0A00F0FBFCD4ED170A94EDF8
:10331000121A00EE810A94ED161AB4EEC10AF1EE0B
:1033200010FA02DDB0EE410A09E094ED0D0A00F05A
:10333000E7FCD4ED170A94ED121A00EE810AB0EE04
:10334000408A94ED0D0A00F0DBFC38EE400AD4ED23
:10335000120A80EE201A84ED0C1A94ED030AFEF78F
:10336000F7FBE06CFEF70AFC2068B0EE401AF0EEC6
:10337000680A8169B0EE480A20468847C4F870514F
:10338000B0EE480ABDEC028B70BD0000BD3786353B
:103390006F12833A0000000000E440C630B50446D6
:1033A0002DED048B83B0B0EE609A90F86600B0EE1D
:1033B000408AF6EE008A00287DD001287BD09FED60
:1033C000C40A31EE000A9FEDC39A022802D00328F6
:1033D00060D160E0FEF7BCFBC0EE090AB1EE080A5E
:1033E00094F8671020EE800ABDEEC00A10EE100AB5
:1033F00031B1D4F8601191ED030A20EE280A01E002
:10340000B0EE480AB44900EB400251F8220008B37C
:1034100001EB82014A68002A7DD000BF00EE900ACD
:103420000023B8EEE01AF0EE400A41EE080AC4EDBF
:10343000590AD1ED010AB8EEE01AF0EE400A41EE69
:10344000080AC4ED5A0A84ED5B0AD4F860010168E9
:103450004D696CE001EB820084ED590AD0ED010A60
:1034600001231A46B8EEE01AF0EE400A41EE080ACF
:10347000C4ED5A0AD0ED020AF8EEE00A00EE880A1E
:1034800084ED5B0AD4F8600101684D69002100E019
:103490000121A8470EE1FEF75BFBC0EE090AB2EE80
:1034A000080A94F8671020EE800ABDEEC00A10EEFC
:1034B000100A41B100E057E0D4F8601191ED030A21
:1034C00020EE280A01E0B0EE480A834900EB4002F2
:1034D000483151F822000028BCD001EB82014A6833
:1034E000CAB18A68002A99D000EE900AB8EEE01AB4
:1034F000F0EE400A41EE080AC4ED590AD1ED010A86
:10350000B8EEE01AF0EE400A41EE080AC4ED5A0A9D
:10351000D1ED020A00E00CE0F8EEE00A012300EE33
:10352000880A84ED5B0AD4F8600101684D690122C4
:10353000AEE700EE900A01230022B8EEE01AF0EEAA
:10354000400A41EE080AC4ED590A84ED5A0AD1ED49
:10355000020AF8EEE00A00EE880A84ED5B0AD4F86D
:10356000600101684D6993E7694601A8B0EE410A20
:10357000FEF700FC9DED000ADDED010A20EE091AC0
:1035800060EE891A00EEC81A40EE081ABEEE000A74
:1035900084ED0E1A21EE000AC4ED0F1A84ED591ABB
:1035A0009FED4E2AF0EE400A41EE820A01EEC20A79
:1035B000C4ED5A0A84ED5B0AD4F86001D0ED031A19
:1035C00094F8660021EEA82A01283DD1F4EEC00A45
:1035D000F1EE10FA02D2F0EE601A01E0F0EE401ABD
:1035E000F4EEC11AF1EE10FA02DDF0EE411A09E034
:1035F000F4EEC00AF1EE10FA02D2F0EE601A01E029
:10360000F0EE401AF4EEC00AF0EE612AF1EE10FA84
:1036100002DDF0EE601A01E0F0EE401AF4EEC11A9D
:10362000F1EE10FA02D2F0EE411A09E0F4EEC00A0F
:10363000F1EE10FA02DDF0EE601A01E0F0EE401A51
:1036400071EEA21A01EEE82A94F8670050B131EE4B
:10365000021A70EE820A30EE020A84ED591AC4EDA5
:103660005A0A25E0F4EEC00AF1EE10FA02D2F0EEAA
:10367000601A01E0F0EE401AF4EEC11AF1EE10FA11
:1036800002DDF0EE411A09E0F4EEC00AF1EE10FAA4
:1036900002D2F0EE601A01E0F0EE401A31EE611A4B
:1036A00070EEE10A30EE610A84ED591AC4ED5A0A4F
:1036B00084ED5B0A04F5B27090EC030AD4F8600163
:1036C00001680969884703B0BDEC048B30BD000078
:1036D000920A063FDB0FC9400C000020D7B35D3FC4
:1036E00070B504462DED028BB0EE408AFEF740FB2C
:1036F0000546D4F87001DFED3E0A281A00EE100AE4
:10370000B8EE400A20EE200AB5EEC00AF1EE10FA3B
:1037100004D910EE100AB0F17C5F01DD9FED350A8F
:10372000D4ED030A48EE000AB0EE600AFEF710FA84
:1037300084ED030A84ED058A2F49A06C94ED168A66
:1037400088423ED094ED0D0A00F0DAFAD4ED170A63
:1037500094ED121A00EE810AD4ED160AF1EE600A19
:10376000B4EEE00AF1EE10FA10D394ED0D0A00F079
:10377000C7FAD4ED170A94ED121A00EE810AD4EDBF
:10378000160AB4EEE00AF1EE10FA02DDB0EE600ABD
:1037900009E094ED0D0A00F0B3FAD4ED170A94EDA8
:1037A000121A00EE810AB0EE408A94ED0D0A00F084
:1037B000A7FA38EE400AD4ED120A80EE201A84ED02
:1037C0000C1AE06C94ED030AFEF7D8F92068B0EE0D
:1037D000401ADFED0A0A8169B0EE480A20468847A0
:1037E000C4F87051B0EE480ABDEC028B70BD000009
:1037F000BD3786356F12833A00E440C600000000F2
:1038000070B50446D0F86001E0B3007CD0B3012568
:1038100084F865502CA0FEF72DFDD4F86001D4ED9E
:10382000160A90ED030AF4EEC00AF1EE10FA01DD7B
:1038300084ED160AD4ED100A94ED160AF4EEC00ACF
:10384000F1EE10FA01DD84ED100AD4F8540118B13C
:1038500084ED1F0A84ED280A1E49A06C884202D11B
:1038600094F8680008B194ED170A84ED370A94EDD6
:10387000180A84ED400A94F8690004280BD0032844
:1038800009D00DE0FFE70F2084F8650012A0FEF7D5
:10389000F1FC002070BD94F83C0108B984F83C515B
:1038A0004FF4FA752846FEF761FA17A0FEF7E2FC1E
:1038B00020688168204688472846FEF757FA02208C
:1038C00084F86500012070BD4D4F543A20496E695F
:1038D0007400000000E440C64D4F543A20496E6920
:1038E00074206E6F7420706F737369626C652C2026
:1038F000647269766572206E6F7420696E6974698E
:10390000616C697A656400004D4F543A20456E61E0
:10391000626C65206472697665722E0070B504462B
:1039200010EE100AB54D2DED028BA84201D084EDAA
:10393000010AD4F83001411CC4F83011D4F82C111C
:1039400088424FD30020C4F8300194F8690004285D
:1039500006D0032804D02046FFF77CFB84ED030A41
:103960002046FFF793FB84ED050A94F864000028D5
:1039700038D0D4ED140A10EE900AA8420BD09FED77
:10398000A01A20EE811AC0EE010A9FED9E1AC0EE29
:10399000811AC4ED0D1AD4F8540178B9D4ED120A85
:1039A00010EE900AA84209D094ED0A1AD4ED0D1A2F
:1039B00031EE611AC1EE201AC4ED0C1A94F86910A8
:1039C0009FED918A04F1CC0605290BD2DFE801F0C6
:1039D00003DB6DFDFC0094F8680030B194ED010A42
:1039E00084ED060ABDEC028B70BDD4ED120A10EE18
:1039F000900AA84204D1D4ED010AC4ED0A0A07E0F6
:103A000094ED0D1AD4ED011A01EEA01A84ED0A1AF4
:103A1000D4ED160AD4ED0A1AB1EE601AF4EEC11A0A
:103A2000F1EE10FA02D2F0EE411A06E0F4EEE01ADE
:103A3000F1EE10FA01DDF0EE601AC4ED0A1A94ED11
:103A4000152A12EE100AA84203D100BF84ED098A9C
:103A5000C8E7D4ED012AD4ED131A22EEC03AF8EEED
:103A6000E13A23EE233A23EE023AB4EEC13AF1EE04
:103A700010FA02D2F0EE410A14E022EEC01AB8EEBB
:103A8000E13A21EE031A21EE021AB4EEE01AF1EE49
:103A900010FA07DC22EEC00AF8EEE10A20EE200A56
:103AA00060EE020AC4ED090A9CE794ED010A04F1F4
:103AB000F00084ED080AD4ED030A30EE600AFEF748
:103AC000DFF9D4ED020A30EE200A84ED070AD4EDC6
:103AD000180AB1EE601AB4EEC10AF1EE10FA02D281
:103AE000B0EE410A06E0B4EEE00AF1EE10FA01DDB4
:103AF000B0EE600A84ED070AD4ED050A30EE600AE4
:103B00003046FEF7BDF984ED060A94F868000028F7
:103B10009ED194ED121A11EE100AA84202D184ED42
:103B20000A0A11E0D4ED0D0A40EE010A94ED161ACE
:103B3000F1EE411AF4EEE10AF1EE10FA2AD2F0EEBB
:103B4000610A00BFC4ED0A0AD4ED151A11EE900AFD
:103B5000A8423FF47BAF94ED052A94ED131A60EE72
:103B6000420AF8EEC12A60EEA20A20EEA13AD4ED94
:103B7000160AF1EE602AB4EEE23AF1EE10FA11D232
:103B8000F0EE620A8EE7D4ED010AC4ED070A30EECA
:103B9000C00AB5E7F4EEC10AF1EE10FAD2DDF0EE9C
:103BA000410ACFE760EE422AB8EEC13A62EE832ABC
:103BB00062EEA12AF4EEE02AF1EE10FAE2DC20EE49
:103BC000420AF8EEC10A01E00DE004E020EE200A0E
:103BD00060EE210A66E794ED010A204684ED070AAB
:103BE000FFF77EFD06E094ED010A204684ED080A09
:103BF000FFF718FB84ED0A0A28E7000000E440C63E
:103C0000D7B3DD3F5077D63D0000000010B5044625
:103C1000D0F86001016849688847D4F860019FEDD9
:103C2000110A0168B0EE401AF0EE400A09698847AF
:103C3000D4F8540110B101680969884704F1CC0037
:103C4000FEF7FEF804F1F000FEF7FAF804F16C005C
:103C5000FEF7F6F804F19000FEF7F2F8012084F880
:103C6000640010BD0000000010B50C462DED048B63
:103C7000F0EE418AB0EE608AB0EE409AFFF71EFA8D
:103C80000B49C464016018EE101A9FED0A0A0A4A33
:103C900080ED129A80ED140A914201D080ED148AD1
:103CA000C0ED158A002180F86810BDEC048B10BDB2
:103CB000B04E000800E440C600E440C62DE9F041E3
:103CC0000446022020700320607000250A206560F1
:103CD000207216460F46657298461422074904F171
:103CE000C400C4F8C050FCF74DFB6760C4F8D8505E
:103CF000267284F809802046BDE8F081084E00084D
:103D0000B0EEC00A70470907090E002804DB00F175
:103D1000E02080F80014704700F00F0000F1E02070
:103D200080F8141D704710B52DED028BF0EE408A1F
:103D300018EE900AB0EE608A20F00040C0F1FF401B
:103D4000C00F07D118EE100A20F00040C0F1FF406C
:103D5000C00F2BD018EE101A18EE900A00F042FB9C
:103D600000EE100A10EE100A6FEAD05010F0FF0FAC
:103D700004BFBDEC028B10BD18EE900A00F00041AC
:103D800010EE100A00F00040814204BFBDEC028B2F
:103D900010BD18EE101A10EE100ABDEC028B61F384
:103DA0001E0000EE900A30EE600A10BD18EE900A78
:103DB0004FF07F41B1EB400F1CBF18EE100A5FEAD5
:103DC0004000C7D10120FCF718FCBDEC028BBDE818
:103DD000104000F001B80000DFED020A80EEA00AFA
:103DE000704700000000000000B505490548FEF7D7
:103DF00035FA044804499C305DF804EBFEF72EBA0E
:103E0000003801402C0400200044004010B51C2262
:103E100005490648FCF7FBFA04481C22BDE810409F
:103E200001491C30FCF7F3BA74010020B4060020ED
:103E300004480549016030300449016030300449CC
:103E400001607047BC050020003001400038004090
:103E5000003C004010B500230C220B210448FFF762
:103E6000E3F8BDE81040034A0349FCF774BA0000C8
:103E70006405002000000008413000081FB59FEDD8
:103E8000100A0B210F48B0EE401AF0EE400AFFF77F
:103E9000EBFE0D4B1F220A210C208DE80F00092399
:103EA0002D2208210948FEF783F904B007480023B2
:103EB0000A22BDE8104006494C30FFF7FFBE000063
:103EC00000E440C690010020C7CFFFFF040300209C
:103ED0002C04002003490A6810440A688242FCD37B
:103EE000704700000800002070280AD2064A00EB44
:103EF000800302EB83000029808952F8231001D04F
:103F000088617047886270473445000808B5012011
:103F1000FEF7D8FF284CA06D40F08050A065A06D42
:103F2000264900F08050009008684FF6FF021040CC
:103F3000234A40F4407010430860FEF7EFFF002270
:103F40000F21FEF710FF01464FF0FF30FEF7FBFE9A
:103F50001C48816841F480418160FDF717FEFCF741
:103F600025FCFEF791F9FEF783FAFEF7E5FCFEF774
:103F700025FDFEF765FDA06C40F00800A064A06C74
:103F800000F008000090FEF719FBFEF7EFFDFEF7CA
:103F900037FEFEF77FFEFEF7B1FBFDF7F7F9FDF701
:103FA000C3FEFEF791FDFEF74BFB074C074894ED6F
:103FB000000AFFF7B3FCF9E7001002400CED00E047
:103FC0000000FA0500700040000000209001002071
:103FD0000B484FF47A714FF0E02200689269B0FB11
:103FE000F1F1891A074AB0FBF2F0B1FBF0F1064893
:103FF000006800EB4002C2EBC01001EBC00070474C
:104000000400002040420F000800002030B4702857
:104010001DD208290FD00F4A00EB800502EB850363
:1040200004290ED09C8952F825000A46214630BC4E
:104030000323FCF7D9BC4FF4FA6230BC5110FDF7F2
:1040400067BB1969491C02D030BC0321DEE730BCD4
:10405000704700003445000800EB80020F4800EB79
:104060008200827B072A16D2DFE802F01504070AD5
:104070000D101300406841630DE0406881630AE061
:104080004068C16307E04068016404E040688164FF
:1040900001E04068C16408467047000034450008EC
:1040A0004FEA1153A3F58063D3F11E03A8BFD3F1E8
:1040B000200C08DB4FF0004242EAC12252EA505283
:1040C00032FA03F0704709420BD4102BC4BF002012
:1040D000704703F5787CBCF1FF3F05D04FF0FF300F
:1040E00070474FF00000704770B500F0B1F800BFA6
:1040F0004992248000207047F0E70000DFF848C1B3
:1041000070B51CEA111E1EBF1CEA13159EEA0C0FA7
:1041100095EA0C0F00F06F8081EA030423EA4C1348
:104120004EEAD47E21EA4C1141F4801143F480130D
:10413000AE44A1FB024CA0FB0365AEF17F7E3619B5
:1041400055EB0C05A1FB034C4CF10003A0FB021C3A
:1041500016EB0C06654153F10003094218BF46F007
:10416000010613F4007F0BD14FEA03314FEA05300B
:10417000340341EA155140EA16506FF003020AE099
:104180004FEAC3214FEAC520F40241EA555140EA03
:1041900056506FF0020202EB2E4201EB025585EA07
:1041A000CE710AD05FEA440C18BF24F0004450F1ED
:1041B000000041F1000120EAD47040F2FE7C62452B
:1041C00000D270BDA84214BF4FF080444FF040446D
:1041D000002E08BF0024BEF1806FA8BFA1F1C0412E
:1041E000BDE8704080F282804FF0000001F1C041D4
:1041F00001F0004170479EEA0C0F0CEA131518BF3E
:1042000095EA0C0F06D04FF0000081EA030E0EF085
:10421000004170BD00F01CF88900013E00F007B8B5
:1042200000F009B84FEA430C5FEA5C5C08D081EA11
:10423000030100F05BB84FEA410C5FEA5C5CF6D129
:104240004FF00000014970470000FF070000F87FB1
:104250000EF1020E2EF0030E5EF8046B364205D40A
:10426000012A43EB030515F5001F12D8012841EB85
:10427000010C1CF5001F0CD80ED14FEAD17C15F5AE
:10428000001F0CEB4C0C0CF1020C08BF4CEBD37C68
:1042900004E04FF0080C01E04FEAD37C0CEB4C0536
:1042A00026FA05F606F00706B6F1040C06D20EEB68
:1042B000860CBDE870404CF0010C6047DFE80CF064
:1042C000090B02024FF000414FF00000A1F5002160
:1042D00070BD19461046012851EB010418BFD4F5F2
:1042E000001484BF002001F0004170BD0808A0F553
:1042F00000114FEA3101704743004FEAD30C4FEAF7
:104300003C0C43401FBF40070CF1605113F0FE4FBF
:1043100070471CF0006F03D100200CF00041704783
:104320000CF0004343EA507010B540EACC0000F0B6
:104330000EF800BF000000924FEA0001FFF7D6BF61
:104340004FF000414FF00000A1F5002170470EF141
:10435000020E2EF0030E5EF8044B244204D44FEA02
:104360004102B2F17F4F11D84FEA4003B3F17F4FC2
:104370000CD80ED14FEAD07CB2F17F4F0CEB4C0C35
:104380000CF1020C08BF4CEBD17C04E04FF0080CA0
:1043900001E04FEAD17C0CEB4C0324FA03F404F067
:1043A0000704B4F1040C06D20EEB840CBDE81040F7
:1043B0004CF0010C6047DFE80CF0070802024FF0F8
:1043C0000040A0F5800010BD0846420018BFD2F1A1
:1043D000807288BF00F0004010BD4FF04070E1EEE9
:1043E000100A70474FF07F4C3CEA410318BF3CEA8B
:1043F000400200F062804FF47F0C10F0004F0CEA96
:10440000D11318BF43F005031CEAD01218BF13EAFA
:104410000C0F00F057804FF0004C4CEA00204CEAA3
:104420000121A3F580339A4210DDB0F1004F23F053
:10443000020306D3401A43F00203BCBF404283F09C
:1044400001034FEA4000A2F58032ECE74FEA224C2C
:10445000BCEB234F08DB884206D31CD0A0EB410005
:10446000C0F1000083F0010340001DD217D40DD02D
:10447000B0FA80FC0CF1010C00FA0CF0A2EB0C423B
:10448000D2F1000C12DB4FEAC37070474FEA437061
:1044900000F00040704713F0020FE5D0DEE7B2F500
:1044A00080324FEA4000EBDD002AE9DD4FEAC2121C
:1044B00042EA502040EAC370704710B5FFF747FF4B
:1044C000EDFFFF3E1CEAD11F02D000F00040704714
:1044D000004870470000C07F00000000040404048E
:1044E0003838000008000000080000080100000043
:1044F00002000000040000000600000008000000A8
:104500000A0000000C000000100000002000000065
:1045100040000000800000000001000000000000DA
:104520000000000001020304060708090000000063
:104530000102030400000048000000400000005099
:1045400001000100000000000000004800000040E1
:1045500000000050020002000000000400000048BB
:1045600000000040000000500400030000000008AC
:104570000000004800000040000000500800040057
:104580000000000C00000048000400400001005042
:104590001000020000000010000000480000004071
:1045A000000100502000010000000014000000483D
:1045B000000400400001005040000100000000180D
:1045C000000000480004004000010050800002008C
:1045D0000000001C00000048002C0140000000000A
:1045E000000101000000002000000048002C0140F4
:1045F000000000000002020000000024000000484B
:10460000002C01400000000000040300000000280E
:1046100000000048002C01400000000000080400D9
:104620000000002C00000048000000000000000016
:1046300000100000000000300000004800000000F2
:1046400000000000002000000000003400000048CE
:1046500000000000000000000040000000000038E2
:104660000000004800000000000000000080000082
:104670000000003C0004004800040040000000501E
:104680000100030000000000000400480004004096
:104690000000005002000400000000000004004878
:1046A000000000000000000004000000FFFFFFFF0A
:1046B00000040048000000000000000008000000A6
:1046C000FFFFFFFF000400480000000000000000A2
:1046D00010000000FFFFFFFF000400480000000082
:1046E0000000000020000000FFFFFFFF0004004862
:1046F000000000000000000040000100FFFFFFFF7D
:1047000000040048000000000000000080000200DB
:10471000FFFFFFFF00040048000000000000000051
:1047200000010300FFFFFFFF00040048000000003D
:104730000000000000020400FFFFFFFF000400482B
:10474000000000000000000000040000FFFFFFFF69
:104750000004004800000000000000000008000005
:10476000FFFFFFFF00040048000000000000000001
:1047700000100000FFFFFFFF0004004800000000E1
:104780000000000000200000FFFFFFFF00040048C1
:10479000000000000000000000400000FFFFFFFFDD
:1047A000000400480000000000000000008000003D
:1047B000FFFFFFFF0008004800000000000000505D
:1047C0000100000000000000000800480000000098
:1047D0000000005002000000000000000008004837
:1047E0000000000000000050040000000000000075
:1047F0000008004800000000000000500800000011
:104800000000000000080048000000000000005008
:104810001000000000000000000800480000000038
:1048200000000050200000000000000000080048C8
:10483000000000000000000040000100FFFFFFFF3B
:104840000008004800000000000000008000020096
:10485000FFFFFFFF0008004800000000000000000C
:1048600000010300FFFFFFFF0008004800000000F8
:104870000000000000020400FFFFFFFF00080048E6
:10488000000000000000000000040000FFFFFFFF28
:1048900000080048000000000000000000080000C0
:1048A000FFFFFFFF000800480000000000000000BC
:1048B00000100000FFFFFFFF00080048000000009C
:1048C0000000000000200000FFFFFFFF000800487C
:1048D000000000000000000000400000FFFFFFFF9C
:1048E00000080048000000000000000000800000F8
:1048F000FFFFFFFF000C0048000000000000000068
:1049000001000000FFFFFFFF000C00480000000056
:104910000000000002000000FFFFFFFF000C004845
:10492000000000000000000004000000FFFFFFFF87
:10493000000C00480000000000000000080000001B
:10494000FFFFFFFF000C0048000000000000000017
:1049500010000000FFFFFFFF000C004800000000F7
:104960000000000020000000FFFFFFFF000C0048D7
:10497000000000000000000040000000FFFFFFFFFB
:10498000000C004800000000000000008000000053
:10499000FFFFFFFF000C00480000000000000000C7
:1049A00000010000FFFFFFFF000C004800000000B6
:1049B0000000000000020000FFFFFFFF000C0048A5
:1049C000000000000000000000040000FFFFFFFFE7
:1049D000000C00480000000000000000000800007B
:1049E000FFFFFFFF000C0048000000000000000077
:1049F00000100000FFFFFFFF000C00480000000057
:104A00000000000000200000FFFFFFFF000C004836
:104A1000000000000000000000400000FFFFFFFF5A
:104A2000000C0048000000000000000000800000B2
:104A3000FFFFFFFF00100048000000000000000022
:104A400001000000FFFFFFFF001000480000000011
:104A50000000000002000000FFFFFFFF0010004800
:104A6000000000000000000004000000FFFFFFFF46
:104A700000100048000000000000000008000000D6
:104A8000FFFFFFFF001000480000000000000000D2
:104A900010000000FFFFFFFF0010004800000000B2
:104AA0000000000020000000FFFFFFFF0010004892
:104AB000000000000000000040000000FFFFFFFFBA
:104AC000001000480000000000000000800000000E
:104AD000FFFFFFFF00100048000000000000000082
:104AE00000010000FFFFFFFF001000480000000071
:104AF0000000000000020000FFFFFFFF0010004860
:104B0000000000000000000000040000FFFFFFFFA5
:104B10000010004800000000000000000008000035
:104B2000FFFFFFFF00100048000000000000000031
:104B300000100000FFFFFFFF001000480000000011
:104B40000000000000200000FFFFFFFF00100048F1
:104B5000000000000000000000400000FFFFFFFF19
:104B6000001000480000000000000000008000006D
:104B7000FFFFFFFF001400480000000000000000DD
:104B800001000000FFFFFFFF0014004800000000CC
:104B90000000000002000000FFFFFFFF00140048BB
:104BA000000000000000000004000000FFFFFFFF05
:104BB0000014004800000000000000000800000091
:104BC000FFFFFFFF0014004800000000000000008D
:104BD00010000000FFFFFFFF00140048000000006D
:104BE0000000000020000000FFFFFFFF001400484D
:104BF0000000000000000000400000000000000075
:104C000000140048000000000000000080000000C8
:104C10000000000000140048000000000000000038
:104C20000001000000000000001400480000000027
:104C30000000000000020000000000000014004816
:104C40000000000000000000000400000000000060
:104C500000140048000000000000000000080000F0
:104C6000FFFFFFFF001400480000000000000000EC
:104C700000100000FFFFFFFF0014004800000000CC
:104C80000000000000200000FFFFFFFF00140048AC
:104C9000000000000000000000400000FFFFFFFFD8
:104CA0000014004800000000000000000080000028
:104CB000FFFFFFFF000000000000000000000000F8
:104CC00000000000000000000000000000000000E4
:104CD00000000000000000000000000000000000D4
:104CE00000000000000000000000000000000000C4
:104CF00000000000000000000000000000000000B4
:104D000000000000000000000000000000000000A3
:104D10000000000000000000000000000000000093
:104D20000000000000000000000000000000000083
:104D30000000000000000000000000000000000073
:104D40000000000000000000000000000000000063
:104D50000000000000000000000000000000000053
:104D60000000000000000000000000000000000043
:104D70000000000000000000000000000000000033
:104D80000000000000000000000000000000000023
:104D90000000000000000000000000000000000013
:104DA0000000000000000000000000000000000003
:104DB00000000000000000000000000000000000F3
:104DC00000000000000000000000000000000000E3
:104DD00000000000000000000000000000000000D3
:104DE00000000000000000000000000000000000C3
:104DF0000000000000000000040404043838000033
:104E0000080000000800000800000000000000008A
:104E10000000000000000000000000000000000092
:104E20000000000000000000000000000000000082
:104E30000000000000000000B11F00082120000851
:104E4000000000000000000061200008A51F00080D
:104E5000000000000000000045220008DD2F0008CF
:104E60000000000000000000000000000000000042
:104E70000000000000000000000000000000000032
:104E80000000000000000000000000000000000022
:104E90000000000000000000000000000000000012
:104EA0000000000000000000000000000000000002
:104EB00001380008000000000D3C00080000000060
:104EC000000000001D3900089D3300081D32000855
:104ED000044F0008000000209001000014020008A8
:104EE000C44F000890010020C00B000070020008B1
:104EF0008DEFFFFFF5EEFFFF5DEFFFFF35EFFFFFEB
:104F00000DEFFFFF2113A0419324F432015AFF015A
:104F1000290C41290C691C6910290C692CE91C0910
:104F20001248091254091244091E2809323421106A
:104F30007F240348066B098C0CAB0FC812E215F9ED
:104F4000180C1C1A1F2422282527281F2B112EFC81
:104F500030DF33BA368D39573C173FCE417B441D85
:104F600047B449404CC04E34519B53F65543588288
:104F70005AB45CD75EEC60F262E964D066A7686EF2
:104F80006A246CCA6D5F6FE3705572B67305754223
:104F9000766C7785788A797D7A5D7B2A7CE47C8A59
:104FA0007D1E7E9D7E0A7F627FA77FD97FF67FE28E
:104FB0008029981440420F2A0EA0223F320D290C5E
:044FC000320F0000AC
:04000005080001D915
:00000001FF
