:020000040800F2
:10000000500D0020E502000847290008F91F0008EC
:1000100045290008651D0008252D00080000000086
:10002000000000000000000000000000812C00081B
:10003000671D000800000000BD2B0008852C00088B
:10004000FF020008FF020008FF020008FF0200088C
:10005000FF020008FF020008691D00082D1E0008AD
:10006000511E0008751E0008991E0008FF020008B6
:10007000FF020008FF020008FF020008FF0200085C
:10008000FF02000800000000FF020008FF02000855
:10009000FF020008FF020008FF020008BD1E000862
:1000A000A52C0008FF020008FF020008FF0200085C
:1000B000C92C0008E92C0008FF020008FF02000814
:1000C000FF020008FF020008FF020008FF0200080C
:1000D000FF0200080D2D0008192D0008FF0200087E
:1000E0008D1D0008FF020008FF020008FF02000843
:1000F000FF020008FF020008FF02000800000000E5
:1001000000000000FF02000800000000FF020008DD
:10011000FF02000800000000FF020008FF020008C4
:10012000FF020008FF020008FF020008FF020008AB
:10013000FF0200080000000000000000FF020008AD
:10014000FF020008FF02000800000000000000009D
:10015000000000000000000000000000000000009F
:10016000000000000000000000000000FF02000886
:10017000FF02000800000000000000000000000076
:1001800000000000FF020008000000000000000066
:10019000000000000000000000000000000000005F
:1001A0000000000000000000FF020008FF0200083D
:1001B000FF020008FF020008FF0200080000000024
:1001C00000000000FF020008000000000000000026
:1001D000FF020008FF02000800F002F800F073F8C8
:1001E0000AA090E8000C82448344AAF10107DA4592
:1001F00001D100F068F8AFF2090EBAE80F0013F071
:10020000010F18BFFB1A43F001031847EC770000F9
:100210000C7800000A444FF0000C10F8013B13F07A
:10022000070408BF10F8014B1D1108BF10F8015B4F
:10023000641E05D010F8016B641E01F8016BF9D142
:1002400013F0080F1EBF10F8014BAD1C0C1B09D199
:100250006D1E58BF01F801CBFAD505E014F8016B0B
:1002600001F8016B6D1EF9D59142D6D3704700009D
:100270000023002400250026103A28BF78C1FBD8AF
:10028000520728BF30C148BF0B6070471FB506F04A
:1002900012FD9DE8030000F02BFA00F005FA0400BF
:1002A0000020002105F0B0FE401C6060002000210D
:1002B00005F0C0FEE06000F0E1F91FBD10B50020C0
:1002C00000F00AFB10BD00F04BFC1146FFF7DEFF0B
:1002D00005F0F8FD00F0F4FE03B4FFF7EFFF03BCF8
:1002E00000F038FC0948804709480047FEE7FEE770
:1002F000FEE7FEE7FEE7FEE7FEE7FEE7FEE7FEE7D6
:1003000004480549054A064B70470000952C000833
:10031000D901000850070020500D0020500900208E
:100320005009002010B500F0BFF9001D10BD00BF3E
:10033000D95C000070B50446051F00F0B1F90068F3
:10034000002C14BF446870BD002C18BFAC423CBFE9
:1003500020466468F8D301680A18AA4218BF4560AD
:1003600003D12A6805461144016028684119A14259
:100370001CBF6C6070BD61686960216808442860BA
:1003800070BD53EA020C00F069802DE9F04B4FF08C
:100390000006002B1FBFB3FA83F503FA05F424FA15
:1003A00005F65E4012BF1643B2FA82F502FA05F472
:1003B000C5F120051EBF22FA05FC44EA0C042035D5
:1003C00056EA044C4FEA144418BF641C4FF000086E
:1003D0004FF00009904271EB030C39D3002919BF8B
:1003E000B1FA81F701FA07F6B0FA80F700FA07F6DA
:1003F000C7F120071EBF20FA07FC46EA0C0620378B
:10040000B6FBF4FCA7EB0507103F07F01F0BCBF181
:1004100020060CFA0BFB2CFA06F644BFB346002666
:10042000202FA4BF5E464FF0000B5BEA060C08BF0E
:100430004FF0010B19EB0B09ABFB027C48EB0608F4
:10044000C01B06FB02CC0BFB03CC71EB0C01C1E71C
:100450000B46024641464846BDE8F08B13B54FF0C7
:1004600000004FF00001AFF30080BDE81C40704772
:1004700070B5064600F020F90468054630460A22A9
:10048000002100F0F1F92C6070BD2DE9F041074624
:1004900015460E46102000F05AF904000AD0676095
:1004A000C4E9026500F004F90168216004600020DD
:1004B000BDE8F0810120FBE7032A40F2308010F014
:1004C000030C00F0158011F8013BBCF1020F6244EF
:1004D00098BF11F801CB00F8013B38BF11F8013B80
:1004E000A2F1040298BF00F801CB38BF00F8013B2D
:1004F00011F0030300F02580083AC0F0088051F89D
:10050000043B083A51F804CBA0E80810F5E7121DA7
:100510005CBF51F8043B40F8043BAFF30080D207C6
:1005200024BF11F8013B11F801CB48BF11F8012B92
:1005300024BF00F8013B00F801CB48BF00F8012BB5
:10054000704710B5203AC0F00B80B1E81850203A3F
:10055000A0E81850B1E81850A0E81850BFF4F5AF63
:100560005FEA027C24BFB1E81850A0E8185044BFED
:1005700018C918C0BDE810405FEA827C24BF51F85A
:10058000043B40F8043B08BF7047D20728BF31F84E
:10059000023B48BF11F8012B28BF20F8023B48BF9F
:1005A00000F8012B70474FF0000200B51346944647
:1005B0009646203922BFA0E80C50A0E80C50B1F1BB
:1005C0002001BFF4F7AF090728BFA0E80C5048BFCF
:1005D0000CC05DF804EB890028BF40F8042B08BF6D
:1005E000704748BF20F8022B11F0804F18BF00F869
:1005F000012B70474FF0013C50F8042B51F8043B9D
:100600009A4221D1A2EB0C03934313EACC1317D1E6
:1006100050F8042B51F8043B9A4215D1A2EB0C037D
:10062000934313EACC130BD150F8042B51F8043B3D
:100630009A4209D1A2EB0C03934313EACC13DBD00B
:100640004FF00000704700BFD01A01BAB1FA81F133
:1006500001F0180122FA01F0CB40C1F12001DBB218
:10066000C0B2C01A2CFA01F3D11A914311EAC31196
:10067000E6D17047704770477047000070B5064C70
:100680007C44064D7D4403E0206820448047241DBF
:10069000AC42F9D170BD0000D0740000E0740000DD
:1006A00000487047F4060020004870470C070020FF
:1006B000004870472407002000487047EC060020DF
:1006C000704770477047704738B504460A460020A7
:1006D0006946AFF30080002808BF38BD0246009984
:1006E000204600F026F9012038BD012000F02BBA89
:1006F000F8B5AFF30080054600200C46102000BF7F
:100700000646A819A0420DD9324669460020AFF32B
:100710000080070008BF00F016FA0098A04218BF3A
:100720000546C419FFF7BCFF05600746F01D20F021
:1007300007004619284600F0F5F8B44208BFF8BD96
:10074000A21B31463868BDE8F84000F0F2B870B539
:100750000646FFF7A5FF056806F10B0020F0070429
:10076000B4429CBF002070BD2B466A68BAB11068C5
:10077000A04210D304F1080188423CBF5068586081
:1007800007D35168101941601168091B0160586056
:100790001460101D70BD13465268002AE7D121462F
:1007A0002846FFF791FF0028DED170BD10B5FFF796
:1007B00083FF006810BD10B50446FFF77DFF04609D
:1007C00010BD00000FB4002300B589B00CA9009142
:1007D0000B99CB60214B7B440693214B7B440793C1
:1007E00004236FF00042CDE901321E4A7A446B4681
:1007F00008920246002006F0A6FB09B05DF814FB43
:1008000070B506464FF0FF3015460C46324686B0AE
:100810000091CDE9010169460020049004A8FFF78A
:10082000D1FF02460498211825B108B1084600E01E
:1008300020462860049800280DD0002A02DD009888
:10084000884208D03246081B69460094CDE901046D
:1008500004A8FFF7B7FF06B070BD00009F010000BD
:10086000B7010000770100002DE9F04791460F46DF
:1008700080460446002614F8015B2DB1FFF752FDB7
:100880000068405DC007F6D12B2D02D02D2D18D069
:10089000641E4A463946204600F08EF827B1396872
:1008A000A14201D1C7F800804FF0020471050BD5B9
:1008B0004042002803DDFFF7FFFE0460A007BDE80B
:1008C000F08746F48066E4E70028F8DAFFF7F4FEE4
:1008D00004606FF00040F2E72DE9F0410646FFF7B3
:1008E000E7FE8046454613E016B1E068B0420ED1FF
:1008F00020682860D4E90101D8F8007088472046B4
:10090000FFF718FDD8F80000B842EBD100E025460B
:100910002C68002CE8D1BDE8F08100000048704749
:10092000EC06002000210160C0E901107047102092
:100930007047034640688C46002818BF88423CBF79
:1009400003464068F8D318681844884207D00CF171
:10095000030020F00700001D411A521A0146081D2D
:100960000A60FFF7E7BC10B50446FFF7DBFC006840
:10097000005D00F0010010BD426842B1016811F84D
:10098000013B23B1521EC0E90012184670470121F5
:10099000C160881E704742685AB1C368016843B994
:1009A00083688B4205D0491E521CC0E9001200200A
:1009B00070474FF0FF3070472DE9F05F82461546D3
:1009C0008B4600270AF10104B9460078302801D08F
:1009D0009DB113E014F8010B0127782803D05828A3
:1009E00001D045B10AE00DB1102D07D1002714F850
:1009F000010B102502E0082500E00A250026B0467C
:100A00000EE005FB080005FB06F101271FFA80F840
:100A100001EB1046B6F5803F00D3B94614F8010B40
:100A2000294600F0C2F80028EBDABBF1000F05D030
:100A30000FB1641E00E05446CBF80040B9F1000F3E
:100A400006D0FFF739FE02210160C81EBDE8F09F05
:100A500048EA0640FAE700002DE9F04781461646CD
:100A60008AB0354878440DC88DE80D003248784486
:100A7000801C03AC0DC884E80D0041F69B3008448F
:100A8000372190FBF1F290FBF1F5A5F1800501FB18
:100A900012041B3C02D56442012000E00020DFF874
:100AA00098A080460027FA44AAF1BE0A0EE0E007AB
:100AB0000AD03246684607EB470101230AEB810161
:100AC00001F004F88DE8070064107F1C002CEED1C3
:100AD000194F7F44AE3F19E0E80715D007EB04102B
:100AE0000DF1180A90E80E008AE80E00C068F04286
:100AF00001D1981908903246012306A903A800F0F5
:100B0000E5FF03AB83E807006D10641C002DE3D103
:100B10004FF0010332466946B8F1000F03A802D036
:100B200000F0AAFF01E000F0D1FFC9E90001C9F817
:100B300008200AB0BDE8F087DC6E0000002801D074
:100B400000F008B8704710B500F0DCFABDE81040BE
:100B5000FFF7F4BF01491820ABBEFEE726000200F4
:100B60007546FFF7DBFEAE4605006946534620F0AA
:100B70000700854618B020B5FFF7C2FBBDE820404E
:100B80004FF000064FF000074FF000084FF0000B49
:100B900021F00701AC46ACE8C009ACE8C009ACE8FC
:100BA000C009ACE8C0098D4670473A2800D23038F9
:100BB00020F02002412A01D3A2F13700884201D35C
:100BC0004FF0FF30704700002DE9FF4F06468BB015
:100BD0000878FF2806D0491C2D2805D000244FF0A6
:100BE000000908E000200CE00124F8E709EB890384
:100BF000491C00EB43090878FF28F7D114B1C9F16B
:100C000000008146107800252C46AA4629462D284A
:100C100001D02B2804D1521C2D2813D0002082464D
:100C20008B461078FF280FD04FF0000C0A21521C81
:100C3000A5FB017804FB018105FB0C11C5194BEBE9
:100C40000104EEE70120EAE7002108464FF000002A
:100C5000BAF1000F02D000EB80004008C0F38157CA
:100C6000012F01DD4FF0FF370E9955EA040009EB23
:100C700001080BD04FF0020918F5FA7F16DA4FEA97
:100C8000CA70002F706008DD012007E04FEACA70CB
:100C9000C6E900B00FB0BDE8F08F00203060FFF76C
:100CA0000BFDC0F800901821084616E0B8F5FA7F51
:100CB00018DD002F02DAF748784401E0F64878445E
:100CC000D0E90010C6E9001040EACA707060FFF772
:100CD000F3FCC0F80090142108460FB0BDE8F04FB7
:100CE00006F06DB8002108464FF00000B8F1000191
:100CF000099002DAC7F1000200E03A4601DAC8F1D1
:100D0000000106A8FFF7A8FE06AB93E8070003ABB7
:100D100083E8070044F23E005BEA04010090584675
:100D200004D144F21E012C465D460091210C0904B9
:100D3000014306D10099240444EA15442D041039D6
:100D4000009104F07F41014306D10099240244EA56
:100D500015642D020839009104F07041014306D159
:100D60000099240144EA15742D01091F009104F033
:100D70004041014306D10099A40044EA9574AD00B6
:100D8000891E009104F00041084304D100986D19B8
:100D90006441401E00904FF001033A466846B8F1A6
:100DA000000FCDE9014503A902DD00F0A4FE01E03A
:100DB00000F077FEBAF1000F04460D4601D084F032
:100DC0000044002108464FF00000099940F2FF77E7
:100DD000484010F00C0F07D124F00040284303D006
:100DE000C4F30A50B84212D1FFF766FCC0F8009075
:100DF000C4F30A50B8420AD1A8487844D0E9001098
:100E0000C6E9001004F000410843706042E7C6E9FB
:100E100000543FE72DE9FF4F1F464FF0000A4FF007
:100E2000FF38454691B0D7E90146CDF83CA0FFF721
:100E30003BFCC0680168405C1090B96912986D1C59
:100E40008847396A814688470028F6D1B9F1FF3FC3
:100E50000AD0002E24F4D06411DDB9F12B0F08D094
:100E6000B9F12D0F0BD102E0404615B013E744F461
:100E70008064B96912986D1C8847761E81466005AA
:100E800004A901D52D2000E02B20002E01F1010B3B
:100E90000DF130088DF810003FDDB9F1690F08D071
:100EA000B9F1490F05D0B9F16E0F02D0B9F14E0F6B
:100EB0001CD13B4601A8009580E85002DDE91212E2
:100EC0006FF0020006F043F8C11CCED10EE0B96904
:100ED00012986D1C884781461398761E44F400745E
:100EE00005600F98401C002E0F9016DDB9F1300FF1
:100EF000EDD0B9F1780F02D0B9F1580F0DD10F989C
:100F000001280AD13B46CDE90054DDE91212001F49
:100F1000029606F01AF8C11CA7D1109989453ED156
:100F200044F0800406E01399681CAAF1010A44F415
:100F300000740860B9696D1C1298761E88473028C5
:100F40008146F0D02BE01099894505D1200603D4C5
:100F5000761E44F0800418E0484604F047FF08B3CA
:100F6000761E0DF123018B4544F4007408D2A9F1DB
:100F700030000BF8010B200607D5AAF1010003E0B1
:100F8000200602D40AF101008246A00502D5139979
:100F9000681C0860B96912986D1C88478146002E4C
:100FA000D1DC53E0002E51DDB9F1650F02D0B9F16B
:100FB000450F4BD1A00549D5B9696D1C1298761E15
:100FC00024F440748847002E81460CDD2B2804D081
:100FD000B9F12D0F07D144F48074B96912986D1CD2
:100FE0008847761E8146E00501D52D2100E02B21A2
:100FF00008F8011BCDF8008021E0761E0DF13901C3
:10100000884544F400740CD2A9F1300010F0FF00C0
:1010100088F8000002D10099884509D908F1010833
:1010200006E0E00501D51E4801E042F20F7082465D
:10103000B96912986D1C8847814613980560002E87
:1010400004DD484604F0D2FE0028D6D1F969129892
:101050008847FF2053468BF8000088F800000020E6
:101060000A900B9004AA0CA90AA8FFF7ADFDA005F1
:1010700002D46FF00100F8E614F0240F12D0E0075C
:101080001CD13868DDE90A12031D3B600068C0E925
:10109000001213E0646D0000566D00001A6C000031
:1010A000F1D8FFFF0AA9684604F016FEE00705D153
:1010B0003868009A011D3960006802602846D4E64D
:1010C00010B50446AFF300802046BDE81040FFF79E
:1010D00003B970B505460C460A2000E06D1C00F00F
:1010E00039F835B128780028F8D102E0641C00F006
:1010F00031F814B120780028F8D1BDE870400A20FA
:1011000000F028B810B5012805D0002103A0FFF792
:10111000E0FF012010BD09A1F8E700005349475244
:10112000544D454D3A204F7574206F6620686561B7
:1011300070206D656D6F7279000000003A2048657F
:101140006170206D656D6F727920636F727275705A
:101150007465640008B569468DF800000320ABBED5
:1011600008BD70472DE9FF4F1F464FF03C0987B07F
:101170004FF00042DDE9141001F10108DDF858A03C
:1011800002EA40500390002005908346054604463D
:101190000490B969461E08988847AAF1010A02908E
:1011A000BAF1000F3BDD02982E2815D01021FFF771
:1011B000FCFC00282EDB4FF0010B0599014317D0F2
:1011C000B9F1000F0BDB4A46C11700F0F5F90543F2
:1011D0000C43A9F1040905E0012004900BE008B1DB
:1011E00045F0010501200590049820B9361D02E064
:1011F000049800B1361FB969089808F101088847BA
:10120000BBF1000FAAF1010A0290C9D00999C1F8F7
:101210000080C5E70298702808D0502806D0F969E8
:1012200008988847BBF1000F14D04FE000200290CF
:101230000120BBF1000F049009D0B969089808F1AA
:1012400001088847AAF10109B9F1000F07DCF96923
:10125000089888476FF001000BB0BDE8F08F2B288D
:1012600004D02D280CD14FF0FF300490B9690898B4
:1012700008F101088847A9F10109B9F1000FE6DD7D
:10128000411CE4D00A21FFF790FC0028DFDB029923
:1012900008F1010801EB810100EB41000290B969FE
:1012A000089888470A21FFF780FC099AA9F10109EB
:1012B000B9F1000FC2F8008001DD0028E7DAF96912
:1012C000089888470499029800FB016655EA0400D3
:1012D00004D004F04041090002D006E0039898E0F1
:1012E000A40044EA9574AD00B61E04F00041080065
:1012F00002D16D196441761E159810F0240F03D0A9
:101300004FF00B095C4803E04FF028096FF07D00B7
:101310008246564507DAAAEB06018944B9F1410F26
:1013200001DD4FF0410901200021A9F1010200F087
:1013300043F9024628400B462140084301D00121D1
:1013400000E00021501E029143F1FF31284021406E
:10135000084301D0012000E000200299834651EAB1
:101360000B014FD0002108464FF00000039900F414
:10137000400039B100EB80004FF4400100EBD07029
:1013800001EA60008015012802DD4FF0FF3000E027
:1013900013D0401C36D0029860B3BBF1000F0CD1C3
:1013A0004A460120002100F007F928402140084367
:1013B00001D0012000E00020E0B101204A460021D8
:1013C00000F0FAF8034640190A4661412D1A8C4193
:1013D00011D3B9F1400F09DD159810F0240F02D098
:1013E000AAF1340603E0AAF1170600E0761C0025F6
:1013F0004FF0004406E05B1E42F1FF3220EA030595
:1014000021EA0204CAF10100B04206DA1B4903983E
:1014100008430190002000900EE0039AC4F3D3210A
:10142000E80A0A43164940EA44500A433146CDE9E6
:101430000002684604F0D0FC159810F0240F0BD081
:101440001598C00715D13868DDE90012031D3B600F
:101450000068C0E900120CE002A8694604F03CFCF8
:101460001598C00705D13868029A011D39600068D7
:1014700002604046F0E6000002FCFFFF0000F07F43
:101480000000F03F2DE9FF4F92461D4685B04FF01A
:101490000041DDE9124BDDE914727F1E01EA4B5079
:1014A000414940F0FF4940EA0108002122F02000B4
:1014B0004928049102D04E2828D04CE03BA00126B8
:1014C00007C88DE80700A9690698641C88477F1E35
:1014D000014606D41DF8060018B121F02001814212
:1014E0000BD0E96906988847032E34D0082E32D0F5
:1014F0006FF0010009B0BDE8F08F761C032E01D01B
:10150000082EE0D1601CCAF80000DCE7A969069843
:10151000641C88477F1E2AD420F02000412826D151
:10152000A9690698641C88477F1E20D420F02000FB
:101530004E281CD1A9690698641C88477F1E48F470
:10154000002849F48009CAF8004001D4282806D0B0
:10155000E969069888475FEACB7012D022E0A96952
:101560000698641C88477F1E01D4002803DAE969C5
:1015700006988847BCE72928F1D1641CCAF80040C6
:10158000E9E71BF0240F07D028680499031D2B609E
:101590000068C0E9001805E02868021D2A6000689C
:1015A000C0F800902046A5E70000F07F494E46496C
:1015B0004E49545900000000B2F120030AD5C2F18F
:1015C000200301FA02F120FA03F300FA02F041EAE3
:1015D0000301704700FA03F14FF00000704720F05C
:1015E0007F4C80EA030023F07F47ACEB070303F551
:1015F0007C5300F0004003F1FF032DE980494FEADE
:10160000154B09B44FEA144325EA0B4E24EA03486C
:101610000FF2042606EB132749083E785FEA3202F0
:1016200003FB0667C7F5000707FB06F64FEA5437CA
:101630004FEAD64606F1020607FB066CCCF1005CC9
:101640004FEA1C472CEA074C07FB06F40CFB06F597
:1016500004EB15464FEA961634BF00204FF00040C9
:101660004FEAD13706FB07FC4FEA1C4C0CFB0BF78B
:10167000D21B03FB0CF761EB07010CFB0EF7B0EB81
:10168000074072EB17420CFB08F734BFA2EB07428E
:10169000B2EB074261EB17414FEA0C444FEA910766
:1016A00006FB07FC4FEA1C4C0CFB0BF7B0EBC740EA
:1016B00072EB573203FB0CF734BFA2EBC742B2EB1D
:1016C000C74261EB57310CFB0EF7B0EBC70072EB72
:1016D00057720CFB08F734BFA2EBC702B2EBC7028C
:1016E00061EB5771039F4FEA816141EA921104EB6C
:1016F000CC044FEAD1374FEA826206FB07FC42EA8C
:1017000090124FEA80604FEA1C4C0CFB0BF7D21B87
:1017100003FB0CF761EB07010CFB0EF7B0EB074086
:1017200072EB17420CFB08F734BFA2EB0742B2EB97
:10173000074261EB17414FEA8C554FEA910704EBE2
:101740009C2406FB07FC4FEA1C4C0CFB0BF7B0EB90
:10175000C74072EB573203FB0CF734BFA2EBC74212
:10176000B2EBC74261EB57310CFB0EF7B0EBC70091
:1017700072EB57720CFB08F734BFA2EBC702B2EB57
:10178000C70261EB577115EB4C254FEA816141EAC5
:1017900092114FEA82624FEAD13742EA901206FB79
:1017A00007FC44F100044FEA80604FEA1C4C0CFB3C
:1017B0000BF7D21B03FB0CF761EB07010CFB0EF7D9
:1017C000B0EB074072EB17420CFB08F734BFA2EBFB
:1017D0000742B2EB074261EB174115EB1C154FEACC
:1017E000813141EA92414FEA823242EA90424FEA25
:1017F00080304FEA0C7644F1000448EA03434EEA95
:101800000B484FF0000EB2EB080C71EB030724BF3E
:10181000624639464EEB0E0E4FF0000B0018524157
:1018200049414BEB0B0BB2EB080C71EB03077BF15F
:10183000000B24BF624639464EEB0E0E4FF0000BF4
:101840000018524149414BEB0B0BB2EB080C71EB0A
:1018500003077BF1000B24BF624639464EEB0E0EA8
:1018600051EA020718BF46F0010616EB0E7655F155
:10187000000254F1000103D5BDE88901BDE80088EC
:10188000BDE88901BDE80048B619524141EB0101AC
:10189000A3F10103704780807F7E7D7C7B7A79781D
:1018A000777676757473727171706F6E6E6D6C6C25
:1018B0006B6A6A69686867666665646463636261C7
:1018C0006160605F5F5E5E5D5D5C5C5B5B5A5A5948
:1018D00059585857575656555555545453535252B4
:1018E0005251515050504F4F4F4E4E4D4D4D4C4C0C
:1018F0004C4B4B4B4A4A4A49494948484847474755
:101900004746464645454544444444434343434291
:10191000424242414141000046EA0646A3F5705367
:101920004FEA164646EA42564FEAD22242EA41526E
:1019300010B54FEAD121A3F1010300F02FF820F0F8
:10194000004000F1020C00F0004701EB005011468E
:10195000BCF5006F40EA070000D210BDBAF1000FDD
:101960000AD01CB503B44FF004004FF004014FF04F
:1019700000000FBCBDE810404FF00001BBF1010FAB
:10198000B9BF04484FF0FF310348002140EA070087
:1019900010BD00BFFFFFEF7F0000F07F002B9C46D3
:1019A00030D477002BD01CB54FEA370703B44FF083
:1019B00010004FF01001BAF1000F06D0BCF1000F7B
:1019C000DCBF40F0080040F008014FF000000FBC01
:1019D000BDE810400BF1010BBBF1010F08BF5FEA3E
:1019E000170722BF12F1010211F101014FF000416E
:1019F00043F1000300F0004043EA00007047F9D3D0
:101A00005708D0E746EA064613F1400F4FEA16465C
:101A10001FDD13F1200FDFBF16430A4600212033DC
:101A20005B42BED0C3F1200746EA064602FA07F73A
:101A30004FEA164646EA0706C3F1200722FA03F2E8
:101A400001FA07F721FA03F14FF0000342EA070217
:101A5000A7E746EA020646EA06464FEA164646EA7F
:101A60000106BCBF46EA0646360C4FF000034FF0B5
:101A700000024FF0000194E72DE9804C9A4693460E
:101A800070B491E8380007C831EA400C48BF34EA26
:101A9000430C03D5FFF7A3FDFFF780FFF0BCBDE8C3
:101AA000008C2DE9804C9A46934670B491E838003A
:101AB00007C831EA400C48BF34EA430C03D5FFF7AE
:101AC0008EFDFFF729FFF0BCBDE8008C2DE9804CAE
:101AD0009A46934670B491E8380007C810F0804FDA
:101AE00008BF13F0804F03D100F01AF8FFF756FF3C
:101AF000F0BCBDE8008C2DE9804C9A46934670B44A
:101B000091E8380007C810F0804F08BF13F0804FED
:101B100003D100F005F8FFF7FFFEF0BCBDE8008C34
:101B200020F07F4780EA030023F07F4C07EB0C0393
:101B3000A3F57C5300F00040A3F1FE0392F0000FE8
:101B400000F0B38095F0000F00F077802DE9014997
:101B50004FEA11404FEA144621EA004800FB06FC18
:101B600024EA064708FB06F607FB08F800FB07F720
:101B700018EB06484CEB164C4FEA124B18EB074893
:101B80004FEA15464CEB174022EA0B4E0BFB06FCC6
:101B900025EA06470EFB06F607FB0EFE0BFB07F7D2
:101BA0001EEB064E4CEB164C4FF000061EEB074E9C
:101BB0004CEB174B18EB0B0840F1000018EB0E0B29
:101BC00058EB000840F100008F1A4FF000013CBFB5
:101BD000C943661B14BFB5EB040C00213CBFC943CD
:101BE000F61B4FEA17444EEA8E0E27EA04454FEAE9
:101BF0001C4704FB07622CEA074C05FB07F70CFBAC
:101C000005F604FB0CFC16EB074642EB174216EBFD
:101C10000C4642EB1C421BEB060658EB020241410C
:101C200046EA9E0601D5BDE80189B619524141EB4D
:101C30000101A3F10103BDE801894FEA14454FEA10
:101C4000114724EA054621EA074C05FB07F406FB89
:101C500007F70CFB06F105FB0CFC11EB074144EB0D
:101C600017444FEA124711EB0C4144EB1C4422EAA3
:101C7000074C05FB07F206FB07F70CFB06F605FB16
:101C80000CFC16EB074642EB174216EB0C4642EBF8
:101C90001C456A1854F1000148BF7047B6195241FB
:101CA00041EB0101A3F10103704795F0000F37D01C
:101CB0004FEA11424FEA144721EA024624EA074C50
:101CC00002FB07F106FB07F70CFB06F402FB0CFC1A
:101CD00014EB074441EB17414FEA154714EB0C4452
:101CE00041EB1C4125EA074C02FB07F506FB07F711
:101CF0000CFB06F602FB0CFC16EB074645EB174502
:101D000016EB0C4645EB1C42121951F1000148BF7D
:101D10007047B619524141EB0101A3F1010370472D
:101D20004FEA14454FEA114724EA054621EA074CD9
:101D300005FB07F106FB07F70CFB06F24FF0000668
:101D400005FB0CFC12EB074241EB174112EB0C4276
:101D500051EB1C4148BF7047921841EB0101A3F1C0
:101D600001037047FEE7704710B5012000F03CFA10
:101D7000002808D00448006800B18047BDE8104042
:101D8000012000F029BA10BD4C06002070B54FF4B8
:101D90008065284600F028FA234C28B1A16A01B1D9
:101DA0008847284600F018FA4FF40065284600F0EE
:101DB0001BFA28B1E16A01B18847284600F00CFA05
:101DC0004FF48055284600F00FFA28B1216B01B17D
:101DD0008847284600F000FA4FF40055284600F0E6
:101DE00003FA28B1616B01B18847284600F0F4F985
:101DF0004FF48045284600F0F7F928B1A16B01B1F6
:101E00008847284600F0E8F94FF40045284600F0DE
:101E1000EBF9002807D0E16B01B188472846BDE8FF
:101E2000704000F0D9B970BD4C06002010B50220FA
:101E300000F0DAF9002808D00448406800B1804773
:101E4000BDE81040022000F0C7B910BD4C060020CC
:101E500010B5042000F0C8F9002808D004488068B4
:101E600000B18047BDE81040042000F0B5B910BDB6
:101E70004C06002010B5082000F0B6F9002808D064
:101E80000448C06800B18047BDE81040082000F059
:101E9000A3B910BD4C06002010B5102000F0A4F925
:101EA000002808D00448006900B18047BDE8104010
:101EB000102000F091B910BD4C06002070B5202014
:101EC00000F092F91B4C28B1606900B180472020D6
:101ED00000F082F9402000F087F928B1A06900B134
:101EE0008047402000F078F9802000F07DF928B18B
:101EF000E06900B18047802000F06EF94FF48075F2
:101F0000284600F071F928B1216A01B188472846B6
:101F100000F062F94FF40075284600F065F90028DA
:101F200007D0616A01B188472846BDE8704000F0DB
:101F300053B970BD4C060020F0B587B00F4605467A
:101F40001E46144618216846FEF72DFBB5F1904F4A
:101F500004D02448854203D102210FE001210DE085
:101F60002148854201D1042108E02048854201D161
:101F7000082103E01E48854232D12021002074B19F
:101F80000122012C0DD00223022C0DD0032C0ED0E7
:101F9000052C0FD0062C0FD0072C11D013E0019088
:101FA00010E0049201900EE0049301900BE00322F4
:101FB000019207E0019204E00192CDE9032002E0E2
:101FC0000193039004900B4800970296C26C0A4359
:101FD000C264C06C084006906946284600F00EF9BD
:101FE00007B0F0BD0004004800080048000C00489D
:101FF0000014004800100240FEE7000030B54FF02A
:10200000A0444B68A46800220E4D04F00104AD68A2
:1020100005F001052C4302D00122104630BD0A4DC7
:1020200053B10C681C43D1E902310B4381681C4356
:1020300029400C438460F0E7836809682B400B4318
:102040008360EAE700010050E030C0FF10B54B6844
:102050008468002214F0010F02D00122104610BD46
:1020600033B1D1E902342343C46824F0047403E09B
:10207000C368CC6823F004732343C360D1E9003103
:102080000B43C16C6FF308010B43C364E6E730B543
:102090008368002213F0010F02D00122104630BDE8
:1020A000D1E9003423438968C4684CF21805AC4375
:1020B00021430B43C360F1E770B54C68836800228D
:1020C00013F0010F02D00122104670BD002C0E4B00
:1020D0000C6807D08D682C43D1E9035635432C4357
:1020E0004D6904E0CD682C43D1E9045635432C43B7
:1020F000C5681D402C43C4604968036B23F00F037F
:102100000B430363E0E700001CC0F0FF30B5036839
:102110000022DB0F02D00122104630BDD1E900348D
:102120002343D1E902452C43096923430B4301684A
:10213000024C21400B430360EEE700000F7E00FFDE
:10214000F0B5002501F010030126946807689E4051
:10215000BE430FD054B30668C02C0DD040F6FC71BE
:1021600099408E4311682143D468214399400E431E
:10217000066023E001252DE0C0249C40A6432643B1
:102180000660046E40F60F769E40B44316685768AA
:10219000B608BF0846EA07269E4034430466C1F3EA
:1021A000C01100EB8101D4688C6507E00168FC2454
:1021B0009C40A14314689C4021430160C46B0721EB
:1021C00099408C43D2E904169269314311439940F6
:1021D0000C43C4632846F0BD02490A6882430A6082
:1021E000704700000004014003490968884301D09A
:1021F000002070470120704700040140F0B50A68D4
:102200000F2692FAA2F2B2FA82F303248AE00125A1
:102210009D402A407ED04D68012D01D0022D20D155
:102220008D68876892FAA2FCBCFA8CFC4FEA4C0ECF
:1022300004FA0EFC27EA0C0792FAA2FCBCFA8CFC0A
:102240004FEA4C0C05FA0CF52F438760CF680D68F8
:10225000D0F804C02CEA050C7D434CEA050CC0F80C
:1022600004C00F69D0F80CC092FAA2F5B5FA85F552
:102270004FEA450E04FA0EF52CEA050C92FAA2F587
:10228000B5FA85F56D00AF404CEA070CC0F80CC0FC
:102290004D68022D2FD1FF2A15D8D1F814C0056A38
:1022A00092FAA2F7B7FA87F7BF0006FA07F7BD431D
:1022B00092FAA2F7B7FA87F7BF000CFA07FC45EAD3
:1022C0000C05056217E0D1F814E0476A150A95FA83
:1022D000A5FCBCFA8CFC4FEA8C0C06FA0CFC95FAB7
:1022E000A5F5B5FA85F5AD0027EA0C070EFA05FE4F
:1022F00047EA0E0747624D68076892FAA2FCBCFAEB
:102300008CFC4FEA4C0C04FA0CFE27EA0E0792FAFA
:10231000A2F200E005E0B2FA82F2520095402F43AB
:1023200007605B1C0A6832FA03F57FF470AF002087
:10233000F0BD4FF47A71B0FBF1F14FF0E020491E8F
:1023400041610021816105210161704730B54A6812
:1023500004680023E40F02D00123184630BD0C4C62
:10236000602A0AD00D681543D1E902210A430168A9
:10237000154321400D430560EFE70A6889680A4369
:102380000168214041F060010A430260E5E7000076
:1023900013F7F9FF10B50024C02823D11248D0F854
:1023A000880000F0C00040F440004038B0F5400024
:1023B0000AD040280CD080280FD000F031FC00F06B
:1023C000FFFB00F00DFC01E000F02AFC044609E0F0
:1023D00000F068F830B1054C04E000F06BF808B18B
:1023E0004FF40044204610BD001002400024F400C9
:1023F00070B5002429492A4D4FF40046032804D023
:102400000C281AD030282FD040E0D1F888006FF483
:10241000403100F0030040F4403040180AD0012859
:1024200036D002282ED000F0FBFB00F0C9FB00F0F4
:10243000E7FB17E000F0F4FB14E0D1F8880000F0AF
:102440000C0040F44020001FB0F54020F2D00428DA
:102450001ED0082816D000BF00F0E2FB00F0B0FB51
:1024600000F0BEFB044611E0D1F8880000F0300017
:1024700040F440101038B0F54010DBD0102807D0E1
:102480002028E9D100F016F800B13446204670BD8E
:1024900000F008F80028F9D02C46F7E700100240B9
:1024A0000024F40002480068C0F380207047000058
:1024B000001002400248D0F89000C0F3400070477E
:1024C000001002400149086070470000040000202D
:1024D00030B50A7B8B681F4C1A434B6822F480622C
:1024E0001A430B6822F400621A43CB8922F480520B
:1024F0001A430B6922F400521A43CB6A22F4804239
:102500001A4322F400421A43114B984201D0A042D0
:1025100007D14D6922F470222A438D6922F080523E
:102520002A43984201D0A0420FD14B6A22F4700294
:102530001A43CB6922F080721A430B6A22F00072B0
:102540001A43896A22F000520A434264002030BDD7
:10255000002C0140003401402DE9F0430268224B79
:10256000224D234E234C4FF08049984207D04845D6
:1025700005D0A84203D0B04201D0A04203D14F6899
:1025800022F070023A431C4FDFF870C0DFF8708011
:1025900098420DD048450BD0A84209D0B04207D090
:1025A000A04205D0B84203D0604501D0404503D1D8
:1025B000CD6822F440722A4302608A68C2620A88A7
:1025C0008262984207D0A04205D0B84203D060454D
:1025D00001D0404501D109690163416941F0010120
:1025E00041610020BDE8F083002C01400004004060
:1025F0000008004000340140004001400044014018
:10260000004801402DE9F0478C460121BCF5805F70
:1026100025D009DCBCF1010F14D0BCF1100F15D08E
:10262000BCF5807F16D116E0424B434C434D444EDF
:10263000444F4FF00009BCF5803F14D0BCF5801F1B
:1026400074D141E0114600F07FF902E0114600F03C
:10265000C7F901466AE0114600F012FAF9E711469F
:1026600000F05CFAF5E7016A21F480310162D0F8EC
:1026700020C0016DDFF8D0802CF4003C01EA080195
:10268000D2F80080984241EA0801B2F810804CEA82
:10269000084CB2F804802CF4803C4CEA084C07D07B
:1026A000A04205D0A84203D0B04201D0B84206D122
:1026B0004368946923F4803343EA0423436001654B
:1026C000D168826C81642EE0016A21F4801101627C
:1026D000D0F820C0016DDFF874802CF4001C01EAF2
:1026E0000801D2F80080984241EA0821B2F810802F
:1026F0004CEA085CB2F804802CF4801C4CEA085CBC
:1027000007D0A04205D0A84203D0B04201D0B842C1
:1027100006D14368946923F4802343EA8423436009
:102720000165D168C164C0F820C049460846BDE8CB
:10273000F0870000002C01400034014000400140BF
:1027400000440140004801408FFFFEFFFF8FFFFE65
:102750002DE9F041044600680D46012610F0010FF6
:102760004CD12969A868EA6908436969114308439B
:1027700021682B4A114008432060E868616821F411
:10278000405101436160A869A16821F4407101438F
:10279000A1602448844201D1032008E022488442F9
:1027A00001D10C2003E02148844203D13020FFF7FF
:1027B0001FFE05E01E48844219D1C020FFF7EAFD44
:1027C000A8B1696899B12A680026EB690B2A0ED86E
:1027D000184FD2B2B3F5004F57F82220B0FBF2F0F9
:1027E0000FD000EB5100B0FBF1F080B2E060288820
:1027F000E16A80B221F00F010143E1623046BDE899
:10280000F081400000EB5100B0FBF1F081B24FF6D7
:10281000F07201EA0200C1F342010843E6E700005A
:10282000F369FFEF003801400044004000480040D9
:10283000004C0040986F0008F0B58FB0202106A82A
:10284000FDF7B1FE18216846FDF7ADFE3A4850F895
:10285000881F002421F00C0140F83C19C16841F4A4
:102860000031C160C16801F400310E91016841F08E
:10287000020101600068022500F002000E900820AD
:102880000090CDE9015407262C4FCDE90446694656
:1028900038460394FFF7B2FC10200090CDE90154B4
:1028A000CDE90446694638460394FFF7A7FC4FF488
:1028B000E130CDE906400C20CDE90A4008940994A6
:1028C0000C940D941E4C06A92046FFF741FF0022F0
:1028D00004F1080050E8001F62F35F7140E8001344
:1028E000002BF7D1002104F1080000BF50E8002FB1
:1028F00022F0606242EA416240E80023002BF5D1F9
:10290000206820F000502060606820F490406060F3
:10291000A06820F02A00A060206840F0010020603C
:10292000E069C0F340500028FAD0E069C0F380505D
:102930000028F5D00FB0F0BD0010024000040048A0
:1029400000440040FEE7FEE730B5026A22F00102D3
:102950000262036A446882691B4D22F003022A4026
:102960000D6823F002032A430D692B434D6823F0C1
:1029700001032B43154DA8420BD0154DA84208D09A
:10298000144DA84205D0144DA84202D0134DA842C0
:1029900012D14D6923F0080343EA85038D6823F0C3
:1029A000040343EA85038D6924F480742C43CD69C4
:1029B00024F4007444EA450444608261C9684163B8
:1029C0000362002030BD00008FFFFEFF002C01409D
:1029D00000340140004001400044014000480140F3
:1029E00030B5026A22F010020262056A4268836909
:1029F0001D4C23F4407323400C6843EA042425F063
:102A000020030D6943EA05134D6823F0100343EAE0
:102A10000513164DA8420BD0154DA84208D0154DF0
:102A2000A84205D0144DA84202D0144DA84213D19B
:102A30004D6923F0800343EA85138D6823F040033A
:102A400043EA85138D6922F4806242EA8502CD69EA
:102A500022F4006242EAC50242608461C96881636F
:102A60000362002030BD0000FF8FFFFE002C0140FC
:102A70000034014000400140004401400048014052
:102A800030B5026A22F480720262046A4368C26945
:102A90001C4D22F003022A400D6824F400742A43DE
:102AA0000D6944EA05244D6824F4807444EA052441
:102AB000154DA8420BD0154DA84208D0144DA84280
:102AC00005D0144DA84202D0134DA84213D14D6930
:102AD00024F4006444EA85248D6824F4806444EA84
:102AE00085248D6923F4805343EA0513CD6923F4CB
:102AF000005343EA45134360C261C968C16304627D
:102B0000002030BD8FFFFEFF002C0140003401404B
:102B100000400140004401400048014030B5026AD5
:102B200022F480520262056A4268C3691D4C23F494
:102B3000407323400C6843EA042425F400530D69D4
:102B400043EA05334D6823F4805343EA0533164DB9
:102B5000A8420BD0154DA84208D0154DA84205D06B
:102B6000144DA84202D0144DA84213D14D6923F44C
:102B7000004343EA85338D6823F4804343EA853379
:102B80008D6922F4804242EA8512CD6922F4004226
:102B900042EAC5124260C461C96801640362002050
:102BA00030BD0000FF8FFFFE002C014000340140CB
:102BB00000400140004401400048014070470000CF
:102BC00005498968054A01F0F0010909515C01F0E5
:102BD0001F01C8407047000000100240C86F000885
:102BE00005498968054A01F4E06102EB1121097881
:102BF00001F01F01C840704700100240D86F000864
:102C000005498968054A01F4605102EBD121097830
:102C100001F01F01C840704700100240D86F000843
:102C20001549886800F00C031448042B0DD042109D
:102C3000082B09D00C2B08D1CB6803F00303022B1F
:102C400005D0032B03D101E0104670471046CA6837
:102C5000C2F306224243C868C96800F0F0030120AD
:102C600000EB1313B2FBF3F201F0C06100EB516013
:102C70004000B2FBF0F07047001002400024F40066
:102C80007047000002480168491C0160704700005D
:102C9000080000200248016841F47001016070479B
:102CA00088ED00E010B5064C206910F0010F05D04A
:102CB0000448006880476FF00100206110BD0000EB
:102CC000002C01408C06002010B54FF08044206994
:102CD00010F0010F05D00348406880476FF00100F5
:102CE000206110BD8C06002010B5064C206910F044
:102CF000010F05D00448806880476FF00100206113
:102D000010BD0000000400408C060020014800F0C7
:102D1000AFBB00002C040020014800F0A9BB00005C
:102D2000C8040020FEE7000010EE100A0349A1EBE2
:102D3000600000EE900A20EE200A7047865A375F46
:102D400010B52DED028B9FED088AF0EE480A02F0D7
:102D5000CFFEB5EEC00AF1EE10FA01DA30EE080A45
:102D6000BDEC028B10BD0000DB0FC94000EE900AE5
:102D7000F8EEE00A20EE200A704700002F4810B558
:102D8000016821F00F0141F004010160016801F0C8
:102D90000F010429FAD12A4850F8801F21F48071CC
:102DA0000160284C206840F4803020602068C0F327
:102DB00040400028FAD0E16845F21350224A114001
:102DC0000843E060E06840F08070E060206840F018
:102DD000807020602068C0F340600028FAD0A068AE
:102DE00040F00300A060802001F0ACF9A06800F082
:102DF0000C000C28FAD11548016841F0807101607F
:102E00001348016841F001010160002141604168FF
:102E10006429FCD3002001F095F9A06820F4E0605B
:102E2000A060A06820F46050A0600A4C2046FFF724
:102E300080FA2046BDE81040FFF744BB0020024066
:102E400000700040001002400C80FFF9FCED00E033
:102E5000001000E080FE210ADFED080A084910B5E5
:102E600030EE200A10EE100A884203DDDFED050A7D
:102E700030EE600A00F008F810BD0000DB0FC93F1B
:102E8000DB0FC940DB0FC94010B510EE100A03F08C
:102E9000A1FE9FED221B53EC112B03F071FC03F0FC
:102EA0009DFB80B2C3B2000A1E49402805D231F80A
:102EB000102001EB4000408823E0802808D2C0F1B8
:102EC0008002C0F17F0031F8122031F8100018E0C4
:102ED000C0280AD201EB4000A0F5805130F8FE0C6A
:102EE000B1F8001F49428AB209E0C0F58072C0F112
:102EF000FF0031F8122031F81000524292B24042E5
:102F000080B2801A584302EB202000EE100ADFED59
:102F1000060AB8EEC00A20EE200A10BDB4F94664D5
:102F2000305FC440E4000020000000381D4810B5A8
:102F3000B2EE080A80ED020AB1EE080A80ED030A3B
:102F400000F088F91749A1F5BA7001F02FFC164876
:102F5000B0EE080A032180ED140A80F8611001F038
:102F600095FF104811A3154A54214C3002F006FA7F
:102F70000C4813A3164A4C214C3002F0FFF94FF4D1
:102F8000E131144800F0A7FA13A1124801F0EDFA5C
:102F900015A1104801F0E9FABDE810404FF47A702D
:102FA00000F030B8040300209001002074617267C3
:102FB00065742076656C6F6369747900453000082C
:102FC000766F6C74616765206C696D6974000000D0
:102FD000353000082C0400204D6F746F722072652C
:102FE0006164792100000000536574207461726788
:102FF00065742076656C6F63697479205B726164B7
:103000002F735D0002F0FABE02F0C0BF70B50C462F
:103010002DED028B0546B0EE408AFFF735FF85EDBA
:10302000000AB0EE480AFFF717FF84ED000ABDEC76
:10303000028B70BD0249024601F5B87002F0ABBACE
:10304000E001002002460249024802F0A4BA000052
:10305000000000205003002010B580ED000A9FED15
:10306000050A044680ED020AFFF7CEFF60602046A5
:1030700010BD00000000000010B504462DED028BCD
:10308000B0EE408AFFF7C0FF6168DFED190A411A10
:1030900000EE101AB8EE400A20EE200AB5EEC00A83
:1030A000F1EE10FA02D29FED130A0CE010EE101AA6
:1030B000114A914207DD84ED028AB0EE480A606051
:1030C000BDEC028B10BD94ED001A31EE000AC1EE8A
:1030D000000A94ED020AB7EE001A20EE200A71EE03
:1030E000600A00EE880A84ED020A6060E8E70000EA
:1030F000BD3786356F12833A9A99993E10B50446CA
:1031000080EC050A9FED060A80ED050A80ED060AAF
:1031100080ED070AFFF778FF2062204610BD00000F
:103120000000000010B504462DED028BB0EE408A81
:10313000FFF76AFF216A411A00EE101AB8EE400A42
:10314000DFED3F0A60EE200AF5EEC00AF1EE10FA5C
:1031500004D910EE901AB1F17C5F01DDDFED390A80
:1031600094ED011A94ED000AF6EE001A21EE201AF1
:1031700094ED053A60EE082A94ED070A21EE211A33
:1031800073EE081A01EE210A94ED041AF1EE411AC9
:10319000F4EEC01AF1EE10FA02DDB0EE610A06E0BC
:1031A000B4EEC01AF1EE10FA01D2B0EE410A38EED8
:1031B000433AB0EE402A94ED020A72EE822A20EEE3
:1031C000033A83EE200A32EE800AF4EEC01AF1EEE2
:1031D00010FA02DDB0EE610A06E0B4EEC01AF1EEBC
:1031E00010FA01D2B0EE410AD4ED031AF5EEC01A7E
:1031F000F1EE10FA1ADD94ED061A30EE413AC3EE04
:10320000202AF4EEE21AF1EE10FA04D2B0EE410AEE
:1032100001EEA00A0AE0B1EE613AB4EEE23AF1EE54
:1032200010FA03DDB0EE410A01EEE00A84ED072A50
:1032300084ED060A84ED058A2062BDEC028B10BD88
:10324000BD3786356F12833A00F8481F427083708D
:103250007047000010B50446052114F8240F02F051
:10326000B3FE207A052102F0AFFE207C052102F09A
:10327000ABFE2079052102F0A7FE207B052102F09C
:10328000A3FE207D052102F09FFEA06943F23901D3
:10329000243CC84203D0C0B2052102F095FE94ED53
:1032A000030A134910EE100A884206D0D4ED020A30
:1032B000B4EEE00AF1EE10FA03DD94ED020A84EDBB
:1032C000030A002084F8480084F849009FED090AA9
:1032D00084F84A0084ED060A84ED050A84ED040AA8
:1032E000206A401C00D001202077002010BD000083
:1032F00000E440C60000000070B50446C06B43F215
:103300003901C84204D094F84010C0B202F080FDE8
:10331000206801231A46056919462046A8472068F7
:103320009FED050AC1682046BDE87040B0EE401A26
:10333000F0EE400A0847000000000000DFED372AE9
:10334000B5EEC00AF1EE10FA02D2B0EE620A08E061
:10335000D0ED031AF4EEC01AF1EE10FA01D2B0EE7D
:10336000610AF5EEC00AF1EE10FA02D2F0EE620A3E
:1033700008E0D0ED031AF4EEE01AF1EE10FA01D2F3
:10338000F0EE610AB5EEC01AF1EE10FA02D2B0EE1C
:10339000621A08E0D0ED031AF4EEC11AF1EE10FA49
:1033A00001D2B0EE611A90ED022A4FF07E52C0EECB
:1033B000021AF5EEC01AF1EE10FA02D2F0EE621A1D
:1033C00005E011EE901A914201DDF7EE001A80EE51
:1033D000820AC0ED041AB5EEC00AF1EE10FA02D26C
:1033E000B0EE620A05E010EE101A914201DDB7EE70
:1033F000000A80ED050A81EE020AB5EEC00AF1EE80
:1034000010FA02D2B0EE620A05E010EE101A9142F4
:1034100001DDB7EE000A80ED060A704700000000EB
:10342000F0B505ACB2EE080A94E8E0100024047789
:1034300004620B4C0460012480F8404000F1240435
:1034400084E8EE1080ED020A9FED060A064980ED41
:10345000030A9FED060A416080ED110AF0BD0000ED
:103460006479000800E440C6C7CFFFFF0AD7A33C39
:1034700030B40169CA69C2F34012002A17D00A6841
:10348000C2F34012002A12D0496ACAB2018B438BA0
:10349000491C01F07F018B4204D0048B00F11C0316
:1034A000E25401834069002801D030BC004730BCA1
:1034B0007047018B428B914202D14FF0FF30704731
:1034C000428B00F11C01515C428B521C02F07F02C6
:1034D0004283084670470022AFF30080022300F0C9
:1034E00001B800002DE9F0438946DFF804C10769FF
:1034F000404993B0984606464FF0904567450CD139
:103500004A150C6E0B15284644F480440C660C6E6C
:1035100004F48044029425240FE0DFF8DCC0674502
:103520000BD104228C6D0823284644F400348C65AA
:103530008C6D04F4003402942624CD6C45F0010512
:10354000CD64C96C1A4301F0010112910492022169
:103550000025CDE905150127CDE9085704A90795F0
:10356000FEF74CFE4FEA0870000E002C05DB00BF92
:1035700004F1E02181F8000405E004F00F0101F1FD
:10358000E02181F8140D0BDB04F01F0007FA00F7AF
:103590004FEA54104FEA800000F1E020C0F80071BB
:1035A000CDE90A594FF00C00CDE90E500C950D9560
:1035B000109511950AA93069FFF7CAF8306941687A
:1035C00021F490414160816821F02A0181603069D5
:1035D00050E8001F41F0200140E80012002AF7D116
:1035E0003069016841F00101016013B0BDE8F0836A
:1035F000003801400010024000440040044AD269F3
:10360000C2F3C0120AB10069816201207047000054
:1036100000380140018B408B081A00F07F00704792
:1036200000224FF47A73C0E90123024B0360C0E922
:10363000041270478079000801460348006800289A
:1036400001D000F088BF704768010020F0B597B046
:10365000002414941594182106A81694FCF7A3FFCF
:1036600011941294139410940C940D940E941821A8
:1036700068460F94FCF797FF624800F0BFFD4FF4D7
:10368000005000F0A3FD012000F0A0FD022000F09A
:103690009DFD01260325CDE900654FF09047694661
:1036A00038460494FEF7AAFD0420CDE900056946DA
:1036B00004943846FEF7A2FD0220CDE90005524FE2
:1036C000694604943846FEF799FDB003CDE900053C
:1036D000694604943846FEF791FDF003CDE91440A5
:1036E0004FF0A04514A928461694FEF7D0FCCDE96A
:1036F0000646089409940A9406A928460B94FEF7F6
:10370000DBFC0021284600F089FD286940F20341D6
:1037100088432861109410A93C481194FEF76EFC70
:1037200084200C90CDE90D640CA928460F94FEF777
:103730008DFCE8683649084040F00040E860E86CDD
:1037400020F4C07040F08000E864A8683149084067
:10375000A860A8683049084040F08050A8602F4811
:103760002F490068B0FBF1F000EB800080000A21D7
:10377000B0FBF1F100E0491E0029FCD1294C0921E0
:103780002246284600F070FD01222146284600F01E
:1037900089FD7F222146284600F058FD224C40F248
:1037A0000F112246284600F05FFD012221462846DF
:1037B00000F078FD7F222146284600F047FD1B4C93
:1037C00006212246284600F05CFD042221462846B8
:1037D00000F068FD7F222146284600F037FD144C9A
:1037E0000C212246284600F04CFD042221462846A2
:1037F00000F058FD7F222146284600F027FD17B033
:10380000F0BD000001001C0000040048000300504F
:10381000FFFFDF7FC0FFFF5FC0FFFF7F04000020CE
:10382000400D03000800900C0010603202003004CC
:103830002000F01430B593B0002510951195182193
:1038400068461295FCF7AFFE069507950895182176
:103850000AA80995FCF7A7FE404800F0CFFC4FF4FA
:10386000005000F0B3FC012000F0B0FC40200A90B2
:1038700003200B900AA90E954FF09040FEF7BEFC76
:103880004FF40040CDE91050354C10A92046129558
:10389000FEF7FDFB019502950395049569462046C8
:1038A0000595FEF709FC0021204600F0B7FC2069D1
:1038B00040F2034188432061842006900120CDE935
:1038C000070506A920460995FEF7C0FBE0682549D3
:1038D000084040F00040E060E06C20F4C07040F030
:1038E0008000E064A06820490840A060A0681F49EB
:1038F000084040F08050A0601D481E490068B0FBA1
:10390000F1F000EB800080000A21B0FBF1F100E053
:10391000491E0029FCD1184D09212A46204600F0F5
:10392000A3FC01222946204600F0BCFC7F22294648
:10393000204600F08BFC114D40F20F112A46204624
:1039400000F092FC01222946204600F0ABFC7F22C9
:103950002946204600F07AFC13B030BD01001C005F
:1039600000010050FFFFDF7FC0FFFF5FC0FFFF7F50
:1039700004000020400D03000800900C00008CCBD8
:1039800030B587B01C216846FCF70DFE4FF480204F
:1039900000F01CFC184D194C00222946204600F06E
:1039A000C5FB0020022104910090019002900121AA
:1039B000CDE905106A4629462046FEF7C1FB20687E
:1039C00020F002002060E06B20F48070E0630C4D7A
:1039D00000222946204600F0A9FB6A4629462046D7
:1039E000FEF7AEFB206820F400302060E06B20F092
:1039F0008070E06307B030BD01001102001000507C
:103A0000F200423510B500F019FC0122032100F04C
:103A10003AFB0146262000F026FB262000F016FB8C
:103A200000F00CFC0022032100F02DFB01460B20CE
:103A300000F019FB0B2000F009FB00F0FFFB002257
:103A4000032100F020FB01461C2000F00CFB1C2091
:103A500000F0FCFA00F0F2FB0122042100F013FB5D
:103A60000146182000F0FFFA182000F0EFFA00F0ED
:103A7000E5FB0022114600F006FB0146192000F08C
:103A8000F2FA192000F0E2FA00F0D8FB002202213D
:103A900000F0F9FA0146122000F0E5FA122000F0D9
:103AA000D5FA00F0CBFB0022032100F0ECFA01462E
:103AB000282000F0D8FABDE81040282000F0C6BA4F
:103AC0002DE9F0439FB014211AA8FCF76CFD2021CA
:103AD00006A8FCF768FD30210EA8FCF764FD18214C
:103AE0006846FCF760FD4FF40067384600F07AFB4B
:103AF00040201B9041F29A00FE10CDE91C060120E7
:103B0000784D00241E90ADF868401AA92846FEF7AB
:103B100023FD286820F0800028600121284600F05D
:103B20001BFB6020CDE9060440F64D00CDE90840BE
:103B30000A940B940C9406AA012128460D94FEF7D2
:103B400061FD0121284600F0B7FA1021284600F057
:103B500003FB06AA10212846FEF754FD1021284633
:103B600000F0AAFA3146284600F0F6FA06AA3146D5
:103B70002846FEF747FD3146284600F09DFA4FF4EF
:103B800080594946284600F0E7FA7020069041F235
:103B90009900099006AA49462846FEF733FD494692
:103BA000284600F089FAA8684F49084040F0100004
:103BB000A860A8684D49084040F00600A860E86881
:103BC00020F04000E860E86820F48040E860686821
:103BD0004749084040F070006860686820F4700051
:103BE0006860A86820F08000A860002302220421F9
:103BF000284600F066FB042200231146284600F008
:103C000060FB002310220421284600F05AFB0E9787
:103C10004FF48068CDE90F863F208DF844003004D2
:103C2000CDE914406F14ADF84640CDE91274400060
:103C300016904FF44010CDE917040EA928461994A8
:103C4000FEF746FC042000F0C1FA022000F0BEFAA4
:103C5000012000F0BBFA0225CDE900750427CDE96B
:103C60000254CDE9045769462248FEF7C7FAA80373
:103C7000CDE90005CDE90254CDE9045769461E4857
:103C8000FEF7BCFACDE900650626CDE90254CDE980
:103C900004564FF0904769463846FEF7AFFA2802BF
:103CA000CDE90005CDE90254CDE904566946384610
:103CB000FEF7A4FACDE90085CDE90254CDE904561A
:103CC00069463846FEF79AFACDE90095CDE90254E7
:103CD000CDE9045669463846FEF790FA1FB0BDE8B4
:103CE000F0830000002C01408FFFCFFFF8FFFEFFA4
:103CF0008FFFFFFD000800480004004810B58CB09D
:103D000014216846FCF74FFC182105A8FCF74BFC72
:103D1000012000F05BFA02200590032000240690A9
:103D200005A909944FF09040FEF768FA4020CDE9CC
:103D300000400294039469460D480494FEF7E6F9A6
:103D40000C480D490068B0FBF1F0C821484300E081
:103D5000401E0B900028FBD10848016821F4001197
:103D60000160001F016821F4001101600CB010BD5A
:103D7000000201400400002080841E000404014071
:103D800010B58CB014216846FCF70DFC182105A86D
:103D9000FCF709FC012000F019FA802005900320AF
:103DA0000024069005A909944FF09040FEF726FAEA
:103DB0004020CDE900400294039469460D480494E4
:103DC000FEF7A4F90C480D490068B0FBF1F0C821DA
:103DD000484300E0401E0B900028FBD108480168D2
:103DE00021F480010160001F016821F4800101605D
:103DF0000CB010BD040201400400002080841E00AD
:103E00000404014010B58CB014216846FCF7CBFBCC
:103E1000182105A8FCF7C7FB022000F0D7F9012004
:103E2000059003200024069005A909941248FEF786
:103E3000E5F94020CDE900400294039469460F481B
:103E40000494FEF763F90E480E490068B0FBF1F0E8
:103E5000C821484300E0401E0B900028FBD10A48CF
:103E6000016821F080410160001F016821F080415C
:103E700001600CB010BD0000000400480C020140BD
:103E80000400002080841E000404014070B58AB044
:103E90000024069407940894182168460994FCF7B6
:103EA00082FB012000F092F902200325CDE90005F4
:103EB0004FF09046694604943046FEF79FF904207F
:103EC000CDE90005694604943046FEF797F90820CD
:103ED000CDE90005694604943046FEF78FF90E4897
:103EE0000894CDE906400D4C06A92046FEF72EFAAF
:103EF000A06920F03800A061206820F48070206064
:103F0000206820F4E03040F440402060206820F039
:103F1000100020600AB070BD4000020000030140A4
:103F200070B58AB000240694079408941821684656
:103F30000994FCF738FB012000F048F92020032504
:103F4000CDE900054FF09046694604943046FEF7EF
:103F500055F94020CDE90005694604943046FEF746
:103F60004DF98020CDE90005694604943046FEF7FE
:103F700045F90E480894CDE906400D4C06A92046A7
:103F8000FEF7E4F9A06920F03800A061206820F471
:103F900080702060206820F4E03040F440402060D1
:103FA000206820F0100020600AB070BD40000200C0
:103FB0000403014070B58AB0002406940794089465
:103FC000182168460994FCF7EEFA022000F0FEF88A
:103FD00001200325CDE90005194E694604943046B9
:103FE000FEF70CF90220CDE900056946049430463D
:103FF000FEF704F90420CDE9000569460494304633
:10400000FEF7FCF80F480894CDE906400E4C06A9CF
:104010002046FEF79BF9A06920F03800A0612068D7
:1040200040F480702060206820F4E03040F440408C
:104030002060206820F0100020600AB070BD0000F1
:10404000000400484000020008030140002809DB8A
:1040500000F01F02012191404009800000F1E020A2
:10406000C0F8001170470907090E002804DB00F1B1
:10407000E02080F80014704700F00F0000F1E0200D
:1040800080F8141D704730B500F00703C3F1070432
:10409000042C00D90424181D072801D2002300E0B5
:1040A000DB1E012505FA04F0401E084098409D40A3
:1040B0006D1E1540284330BD012922D0042922D08D
:1040C000102922D0402922D0B1F5807F21D0B1F52E
:1040D000806F20D0B1F5805F1FD0B1F5804F1ED02A
:1040E000B1F5803F1DD009210F4A1830525C1044B1
:1040F00002680D4B0A335B5C042199408A430260DD
:1041000070470021F0E70121EEE70221ECE70321EF
:10411000EAE70421E8E70521E6E70621E4E70721CD
:10412000E2E70821E0E70000826F000810B5C36BEA
:1041300001F010014FF400748C40A3438A401343F4
:10414000C36310BD03498A6822F0F00202438A600B
:104150007047000000100240012922D0042922D01B
:10416000102922D0402922D0B1F5807F21D0B1F58D
:10417000806F20D0B1F5805F1FD0B1F5804F1ED089
:10418000B1F5803F1DD009210F4A1830525C104410
:1041900002680D4B0A335B5C082199400A430260B8
:1041A00070470021F0E70121EEE70221ECE703214F
:1041B000EAE70421E8E70521E6E70621E4E707212D
:1041C000E2E70821E0E70000826F0008044908B533
:1041D000CA6C0243CA64C96C0140009108BD00006A
:1041E00000100240044908B50A6E02430A66096ECF
:1041F0000140009108BD000000100240064A10B5C1
:1042000052F8881FC0F3044303249C40C0B2A1436A
:1042100098400143116010BD00100240D0F8C0204A
:104220006FF30D020A43C0F8C020026922F4803205
:1042300001B1012142EA0141016170470248006871
:10424000C0F30220704700000CED00E0054BC1F305
:1042500012019A4250F8B02F01D10A4300E08A437C
:104260000260704700007F4010B5C36C01F01F0171
:104270001F248C40C2F38462A3438A401343C36467
:1042800010BD0C2303EA911310B51844036B01F021
:104290001F011F248C40C2F38462A3438A4013434E
:1042A000036310BD042303EAD15310B518444369D6
:1042B000C1F3045107248C40A3438A401343436154
:1042C00010BD30B50844016E92FAA2F4B4FA84F439
:1042D00004F01F054FF4007492FAA2F2AC40B2FA57
:1042E00082F202F01F02A14393401943016630BDE0
:1042F0002DE9F0410C462DED048B82B0B0EE408AE2
:10430000F0EE608A80469FED4C9B002553EC192B04
:1043100051EC180B02F032FB04D2B0EE480AF0EE7A
:10432000680A05E051EC180B01F09AFE41EC100B05
:104330009FED431B51EC100B53EC112B02F01EFBB5
:1043400053EC192B51EC180B11D802F0DDF904D203
:104350002D21404600F0C2F805463BA1404600F042
:10436000BAF8284402B0BDEC048BBDE8F08102F03D
:10437000CBF90AD22D21404600F0B0F8054651ECA9
:10438000180B01F06DFE41EC180B9FED330B00266E
:104390009FED339B0AE000BF53EC192B51EC100B3F
:1043A00001F058FF41EC100B761CF6B2A642F3D395
:1043B00053EC102B51EC180B01F090FE41EC180B54
:1043C00002F000FD06460F4602F04CF953EC182BA4
:1043D00002F00AFB41EC180B0A20009032463B46E3
:1043E000404600F088F8054404B31FA1404600F0A1
:1043F00072F805441AE000BF53EC192B51EC180B6E
:1044000002F0BEF941EC180B02F0B8F8064601467E
:104410000A22404600F068F80544304602F00BF9E5
:1044200053EC182B02F0E0FA41EC180B641EE4B2D6
:10443000E2D2284696E700000000000000000000DD
:10444000800350726C92DF433C6C6172676520643C
:104450006F75626C653E0000000000000000E03FE8
:1044600000000000000024402E0000002DE9F04173
:1044700090B0002419468046169F944626466D4605
:1044800052EA01000FD13021404600F027F8012008
:1044900010B0BDE8F0813A4600236046FBF771FF9B
:1044A0002A558446641C5CEA0100F4D174B12819D1
:1044B00010F8010C0A2801D2303000E03730C1B2C8
:1044C000404600F00BF80644641EEFE73046DFE795
:1044D0000268526810470268526810470268126802
:1044E0001047C9B2FFF704BF08B5CB1700920A46C0
:1044F00000F001F808BDF8B51546069E1C460746B3
:104500008EB1002C07DA2D21FFF7E8FF20460024AA
:104510006D4264EB0004F0B200902A462346384610
:10452000FFF7A4FFF8BD3868D1B2026801B0384681
:10453000BDE8F040104770B50C460646002505E082
:104540003068641C0268304690476D1C2178002951
:10455000F6D1284670BD70B50546FFF7B9FF044691
:10456000284600F020F8204470BD70B50546FFF7DE
:10457000B2FF0446284600F016F8204470BD70B51E
:104580000546FFF7AEFF0446284600F00CF820442D
:1045900070BD70B50546FFF7A7FF0446284600F03A
:1045A00002F8204470BD70B505460D21FFF796FF57
:1045B00004460A212846FFF791FF204470BD000001
:1045C00010B5044C046080F8543080F8551080F821
:1045D000562010BDA479000803490160002180F82D
:1045E000551080F856107047A479000810B504469D
:1045F000D0F8480198B101684968884704F58C7083
:10460000FEF73AFD94F93401F0EE400A01EE100A8B
:1046100094ED4B0AB8EEC11A11EE200A10BD94EDCC
:10462000030A10BD10B50446D0F8480178B10168FE
:10463000C968884704F58670FEF71EFD94F93401B9
:1046400000EE900AF8EEE00A20EE200A10BD94ED8C
:10465000050A10BD10B54F492DED028B9FED4E8A16
:104660000160002480ED028A80F85C4080F85D40A3
:10467000012180F85F10B2EE082AF0EE481AB0EE81
:10468000481ADFED468AB0EE080A6430F0EE680A98
:10469000FEF734FDB2EE082AF0EE481AB0EE481AE2
:1046A000F0EE680AB0EE080A2430FEF727FDDFEDD1
:1046B0003C8A2430B0EE680AFEF7CEFCB0EE680A01
:1046C0000C30FEF7C9FCB2EE082ADFED361AB0EE68
:1046D000481AF2EE040AB6EE000A0C30FEF70EFDA0
:1046E000B3EE042AF0EE481AB0EE481AF0EE480A8B
:1046F000B3EE040A2430FEF701FDB0EE680A243060
:10470000FEF7AAFCB0EE480A0C30FEF7A5FC40F814
:104710000C4F9FED250A446080ED030A0474642168
:10472000416104764476092181760421C1616321C7
:1047300080F82010B3EE040A046300ED330AB2EEF1
:10474000080A00ED350AB0EE000A00ED340AB7EEB3
:10475000000A00ED3A0AB0EE080A00ED3B0A00F844
:10476000C64C00ED488A00ED408A00ED3F8A00ED1E
:10477000438A00ED3D8A00ED3E8A00ED3C8AC4622A
:1047800080ED028A44628462A0F59270BDEC028BD7
:1047900010BD0000B479000800000000000096433E
:1047A0000AD7A33B00007A4400E440C6C0F8581181
:1047B0007047000070B504462DED028BB0EE408AC4
:1047C000FEF722FC0546D4F87001281A00EE100A04
:1047D000B8EE400ADFED510A20EE200AB5EEC00A1D
:1047E000F1EE10FA04D910EE100AB0F17C5F01DD91
:1047F0009FED4B0A94ED032A94ED161A78EE421AB7
:1048000061EE000AF0EEE12AF0EEE00ADFED458A03
:10481000F4EEE02AF1EE10FA1EDDF5EEC01AF0EE2D
:10482000C10AF1EE10FA02D24FF0FF3007E0F5EEC8
:10483000C01AF1EE10FA01DD012000E0002001EEC7
:10484000900AF8EEE11A60EEA10A00EE802A84EDEB
:10485000032A84ED051A03E084ED038AC4ED058A7A
:104860003149206C94ED148A88423ED094ED0D0AB3
:1048700000F0FEFED4ED150A94ED101A00EE810A48
:10488000D4ED140AB1EE601AB4EEC10AF1EE10FADA
:1048900010D394ED0D0A00F0EBFED4ED150A94ED63
:1048A000101A00EE810A94ED141AB4EEC10AF1EE6A
:1048B00010FA02DDB0EE410A09E094ED0D0A00F0B5
:1048C000D7FED4ED150A94ED101A00EE810AB0EE71
:1048D000408A94ED0D0A00F0CBFE38EE400AD4ED8C
:1048E000100A80EE201A84ED0C1A94ED030AFEF7EC
:1048F00027FA606CFEF73AFA2068B0EE401AF0EE44
:10490000680A8169B0EE480A20468847C4F87051A9
:10491000B0EE480ABDEC028B70BD0000BD37863595
:104920006F12833A0000000000E440C630B5044630
:104930002DED088B83B0F0EE419AB0EE609AB0EEA8
:10494000408A90F85E00F6EE008A00287DD00128AB
:104950007CD09FEDFE0A39EE800A9FEDFD9A022879
:1049600002D0032860D160E0FEF7EAF9C0EE090A40
:10497000B1EE080A94F85F1020EE800ABDEEC00A7E
:1049800010EE100A31B1D4F8581191ED030A20EE5F
:10499000280A01E0B0EE480AEE4900EB400251F867
:1049A000220008B301EB82014A68002A7ED000BFD2
:1049B00000EE900A0023B8EEE01AF0EE400A41EE55
:1049C000080AC4ED570AD1ED010AB8EEE01AF0EE7C
:1049D000400A41EE080AC4ED580A84ED590AD4F899
:1049E000580101680D696DE001EB820084ED570A02
:1049F000D0ED010A01231A46B8EEE01AF0EE400AA3
:104A000041EE080AC4ED580AD0ED020AF8EEE00AB9
:104A100000EE880A84ED590AD4F8580101680D693E
:104A2000002100E00121A84782E1FEF789F9C0EEEC
:104A3000090AB2EE080A94F85F1020EE800ABDEE73
:104A4000C00A10EE100A49B101E058E0B6E0D4F80F
:104A5000581191ED030A20EE280A01E0B0EE480A51
:104A6000BC4900EB4002483151F822000028BBD07D
:104A700001EB82014A68CAB18A68002A98D000EE28
:104A8000900AB8EEE01AF0EE400A41EE080AC4EDD2
:104A9000570AD1ED010AB8EEE01AF0EE400A41EEF5
:104AA000080AC4ED580AD1ED020A00E00CE0F8EE65
:104AB000E00A012300EE880A84ED590AD4F858016F
:104AC00001680D690122ADE700EE900A0123002282
:104AD000B8EEE01AF0EE400A41EE080AC4ED570ABB
:104AE00084ED580AD1ED020AF8EEE00A00EE880AD9
:104AF00084ED590AD4F8580101680D6992E76946B6
:104B000001A8B0EE690AFEF781FADDED001A9DED0D
:104B1000010ABEEE002A21EE891A60EE090A00EEB3
:104B2000481A41EE880A84ED5A1AC4ED5B0AD4F89B
:104B3000580121EE022A90ED030A20EE280A71EEB8
:104B4000001AC4ED571ADFED842AB0EE421A00EEC7
:104B5000A21A00EEE22A31EE001A72EE000A84ED8B
:104B6000581AC4ED590A94F85F0000287DD1B4EEBC
:104B7000E01AF1EE10FA02D2B0EE410A01E0B0EE16
:104B8000600AB4EEE10AF1EE10FA02DDB0EE610A5D
:104B900009E0B4EEE01AF1EE10FA02D2B0EE410AEA
:104BA00001E0B0EE600A71EEC01A31EE401A30EE4C
:104BB000C00AC4ED571A84ED581AB7E0B5EEC09A92
:104BC000F1EE10FA14D029EE090A08EE080AFEF7F1
:104BD000ABF8D4F85801D0ED030A80EE20AAB0EE6D
:104BE000480AF0EE490A00F0D7FD30EE290A09E044
:104BF000D4F8580190ED030A88EE00AA9FED570AF9
:104C000039EE800AFEF79CF8B0EE409ADFED54AA28
:104C100089EE2A0A00F034FFF7EE009A30EE290AF6
:104C2000FDEEC00AB0EE490A10EE905A00EE905A1E
:104C3000F8EEE00A10EEAA0AFEF726F99FED49BA4F
:104C400000EE905A20EE0B0A20EE0A8AB8EEE00A37
:104C500070EE690AB0EE490A00EEEA0AFEF714F9AE
:104C600020EE0B0A60EE0A1A00E061E0DFED3E0A7A
:104C700094F85F00B0EE600A18B139EEC80A30EE61
:104C8000610A072D3CD2DFE805F03B040B16212812
:104C9000340038EE211AF0EE610A00EE281A05E021
:104CA000B0EE481A78EE210A00EE281A20EE288A83
:104CB00040EE280A28E078EE210A40EE281A20EE7D
:104CC000281A40EE280AB0EE618A1DE0F0EE480A8C
:104CD00020EE281A40EE280A05E0B0EE611A60EED8
:104CE000280A00EE281A38EE218A00BF00EE288A32
:104CF0000AE038EE211A60EE280A00EE281AF5E7DD
:104D0000B0EE601AB0EE608AD4F8580190ED030A54
:104D100020EE010A84ED570A90ED030A20EE200AE6
:104D200084ED580A90ED030A20EE080A84ED590A32
:104D300004F5AE7090EC030AD4F858010168C96814
:104D4000884703B0BDEC088B30BD0000920A063FD7
:104D5000DB0FC9400C000020D7B35D3FDB0FC93F1C
:104D6000920A863FD7B3DD3F0000000070B50446CD
:104D70002DED028BB0EE408AFEF746F90546D4F8D9
:104D80007001DFED3E0A281A00EE100AB8EE400A64
:104D900020EE200AB5EEC00AF1EE10FA04D910EEAA
:104DA000100AB0F17C5F01DD9FED350AD4ED030AF6
:104DB00048EE000AB0EE600AFDF7C2FF84ED030A78
:104DC00084ED058A2F49206C94ED148A88423ED0E8
:104DD00094ED0D0A00F04CFCD4ED150A94ED101A78
:104DE00000EE810AD4ED140AF1EE600AB4EEE00A96
:104DF000F1EE10FA10D394ED0D0A00F039FCD4ED69
:104E0000150A94ED101A00EE810AD4ED140AB4EEDE
:104E1000E00AF1EE10FA02DDB0EE600A09E094ED6E
:104E20000D0A00F025FCD4ED150A94ED101A00EEE1
:104E3000810AB0EE408A94ED0D0A00F019FC38EEBC
:104E4000400AD4ED100A80EE201A84ED0C1A606C32
:104E500094ED030AFDF78AFF2068B0EE401ADFEDFB
:104E60000A0A8169B0EE480A20468847C4F87051A2
:104E7000B0EE480ABDEC028B70BD0000BD37863530
:104E80006F12833A00E440C60000000070B504468B
:104E9000D0F85801E0B3007FD0B3012584F85D500D
:104EA0002CA0FEF7C9FBD4F85801D4ED140A90EDFC
:104EB000030AF4EEC00AF1EE10FA01DD84ED140AE3
:104EC000D4ED0E0A94ED140AF4EEC00AF1EE10FAD5
:104ED00001DD84ED0E0AD4F84C0118B184ED1D0AF1
:104EE00084ED260A1E49206C884202D194F86000A5
:104EF00008B194ED150A84ED350A94ED160A84ED97
:104F00003E0A94F8610004280BD0032809D00DE074
:104F1000FFE70F2084F85D00BDE8704011A0FEF7A8
:104F20008BBB94F8340108B984F834514FF4FA7506
:104F30002846FEF767F817A0FEF77EFB2068816819
:104F4000204688472846FEF75DF8022084F85D0079
:104F500070BD00004D4F543A20496E697400000046
:104F600000E440C64D4F543A20496E6974206E6F7C
:104F70007420706F737369626C652C20647269763B
:104F80006572206E6F7420696E697469616C697AEC
:104F9000656400004D4F543A20456E61626C652097
:104FA0006472697665722E0070B504462DED028B31
:104FB000B0EE408AD0F82801411CC4F82811D4F87A
:104FC0002411884252D30020C4F8280194F86100CB
:104FD000042806D0032804D02046FFF707FB84ED01
:104FE000030A2046FFF71EFB84ED050A94F85C00D7
:104FF00000283BD018EE100AA34DA84201D084ED42
:10500000018AD4ED120A10EE900AA84207D080EE71
:10501000201ADFED9E0AC1EE201AC4ED0D1AD4F855
:105020004C0178B9D4ED100A10EE900AA84209D0CC
:1050300094ED0A1AD4ED0D1A31EE611AC1EE201A60
:10504000C4ED0C1A94F861109FED918A04F1C40626
:1050500005290BD2DFE801F003DF70EFEE0094F8D2
:10506000600030B194ED010A84ED060ABDEC028BBC
:1050700070BDD4ED100A10EE900AA84204D1D4ED10
:10508000010AC4ED0A0A09E094ED0D1AD4ED011AE3
:1050900001EEA01A84ED0A1AF0EE410A94ED141AFA
:1050A000F1EE411AF4EEE10AF1EE10FA02D2F0EE5E
:1050B000610A06E0F4EEC10AF1EE10FA01DDF0EE4D
:1050C000410AC4ED0A0A94ED132A12EE100AA8420E
:1050D00003D100BF84ED098AC8E7D4ED012AD4EDDD
:1050E000110A22EEC03AF8EEE03A23EE233A23EE1C
:1050F000023AB4EEE13AF1EE10FA02D2F0EE610AB1
:1051000017E062EEC01AB8EEE03A61EE831A61EE83
:10511000821AF4EEC11AF1EE10FA02DDF0EE410A45
:1051200007E022EEC00AF8EEE00A20EE200A60EE68
:10513000020AC4ED090A99E794ED010A04F1E800B6
:1051400084ED080AD4ED030A30EE600AFDF7EAFFA9
:10515000D4ED020A70EE201AC4ED071A94ED160A77
:10516000D4ED080AB1EE401AF4EEC10AF1EE10FADD
:1051700002D2B0EE410A06E0F4EEC00AF1EE10FAF7
:1051800001DCB0EE600A84ED080A94ED050A31EE08
:10519000C00A3046FDF7C6FF84ED060A94F86000A9
:1051A000002899D194ED101A11EE100AA84202D1EC
:1051B00084ED0A0A10E0D4ED0D0A40EE010A94EDE8
:1051C000141AF1EE411AF4EEE10AF1EE10FA29D2C6
:1051D000F0EE610AC4ED0A0AD4ED131A11EE900A3A
:1051E000A8423FF477AF94ED052A94ED111A60EED2
:1051F000420AF8EEC12A60EEA20A20EEA13AD4EDEE
:10520000140AF1EE602AB4EEE23AF1EE10FA13D28B
:10521000F0EE620A8DE7D4ED010AC4ED070A30EE24
:10522000C00AB6E7F4EEC10AF1EE10FAD2DDF0EEF4
:10523000410ACFE71EE015E060EE422AB8EEC13A1F
:1052400062EE832A62EEA12AF4EEE02AF1EE10FA71
:10525000E0DC20EE420AF8EEC10A20EE200A60EE01
:10526000210A66E794ED010A204684ED070AFFF75C
:105270007DFD06E094ED010A204684ED080AFFF763
:1052800099FA84ED0A0A25E700E440C65077D63D36
:105290000000000010B50446D0F85801DC34016865
:1052A00049688847E06F9FED060A0168B0EE401A32
:1052B000F0EE400AC9688847012004F8800C10BD50
:1052C0000000000010B50C462DED048BF0EE418A75
:1052D000B0EE608AB0EE409AFFF7BCF90D49446425
:1052E000016018EE101A9FED0C0A0C4A80ED109A1E
:1052F00080ED120A914205D09FED090A28EE000ABE
:1053000080ED120AC0ED138A002180F86010BDEC18
:10531000048B10BDD879000800E440C600E440C604
:10532000F304B53F10B5027A8A4201D1012010BDC5
:105330000D2901D0002010BD01A100F00DF8F5E706
:105340005761726E3A205C7220646574656374659F
:105350006421200A000000000278022A01D100F036
:10536000FCB870470278032A01D100F00AB97047EF
:105370000278032A01D100F025B9704710B5D0F8A2
:10538000C04000EB8404E260D0F8C04000F15C0251
:10539000A154D0F8C01000EB81010B6750F8C01F7A
:1053A000491C016010BD000070B50D460978044627
:1053B00023294CD03F2905D0402922D00026D4F8FB
:1053C000C0006AE0002515E03F212046FFF7CAFF34
:1053D000601990F85C10204600F0D3F830A1204608
:1053E00000F0C5F804EB8500016F41B1204600F0E4
:1053F000F3F86D1CD4F8C000A842E5DC70BD29A10B
:10540000F4E76978FFF78EFF18B9681CFBF730F8EE
:10541000207025A12046FFF79FFF40212046FFF77F
:10542000A1FF207858B101280BD0022809D0032809
:10543000E4D12046BDE870401DA1FFF799BF1EA131
:1054400000E01FA12046BDE8704000F0BBB86978BD
:10545000FFF768FF18B9681CFBF70AF8607019A11C
:105460002046FFF779FF23212046FFF77BFF617875
:105470002046BDE8704000F0CEB8A21992F85C302A
:105480008B4209D12046FFF76DFF04EB8600C1680F
:10549000681CBDE870400847761CB042EDDC70BD6A
:1054A0003A00000000000000566572623A000000F9
:1054B0006D616368696E65006F66662100000000BB
:1054C0006F6E2100446563696D616C3A00000000F5
:1054D0002DE9F04790F80880D0F8049002720E464B
:1054E000044600F1C4074FF0000A416022E0306832
:1054F000016930468847D4F8D81005464A1CC4F8DC
:10550000D820C855607A18B1E9B2204600F039F8C1
:10551000E9B22046FFF706FF20B139462046FFF7E3
:1055200043FF03E0D4F8D800142803DB84F8C4A0B8
:10553000C4F8D8A03068C168304688470028D6D162
:10554000C4F8049084F80880BDE8F0874168002919
:1055500002D0027AFFF7BCBF70474268002A05D02C
:105560000078002802D01046FEF7B2BF70474268AC
:10557000002A05D00078002802D01046FEF7ABBF05
:1055800070474268002A05D00078002802D01046F3
:10559000FEF7A4BF704770B50C4615460646117855
:1055A000FFF7C0FE38B9284600F04EFA51EC100B58
:1055B00000F062FD206094ED000A3046BDE87040C6
:1055C00000F014B84268002A05D00078002802D004
:1055D0001046FEF7C0BF70474268002A05D0007829
:1055E000002802D01046FEF7C0BF704770B545686E
:1055F0000446002D0ED0207800280BD010EE100AA3
:1056000001F0E8FA41EC100B61782846BDE87040E3
:10561000FEF7B5BF70BD4368002B06D000780028A8
:1056200003D00A221846FEF7B4BF70472DE9F041B7
:105630000446022020700320607000250A20656067
:10564000207216460F46657298461422074904F1E7
:10565000C400C4F8C050FAF72FFF6760C4F8D850F0
:10566000267284F809802046BDE8F081A078000801
:10567000B0EEC00A70474100080218BF04200A0EAD
:1056800018BF40F001004FF07F4232EA010108BF2D
:1056900040F00200012808BF05207047000000000C
:1056A00030B52DED048B81B0B0EE408AF0EE608A0B
:1056B0006A4651EC180B00F0BFFB00989FED329B3F
:1056C0007E300090002821DC53EC192B51EC180B94
:1056D00000F018FF1AD0002140F608004FF000003B
:1056E000044651EC180B00F0C7FC08EE100A40F617
:1056F000080004EA00014FF00000B5EEC08AF1EEA8
:1057000010FA04BF0220FBF756F82DE00098FF289E
:1057100030DB002108464FF0000000F4400553EC58
:10572000192B51EC180B01F029F98CBF002401242E
:105730000220FBF740F89FED168A4DB1002C0CBFFC
:105740004FF400004FF48000A84218BF9FED118A6B
:10575000042108464FF00000002C01BFB1EE480ABA
:1057600001B0BDEC048B30BDB0EE480A01B0BDEC19
:10577000048B30BD51EC180B00F07EFC01B000EE44
:10578000100ABDEC048B30BD0000000000000000DA
:105790000000807FFFFF7F7F70B54FF068422DEDE6
:1057A000048BF0EE408A18EE900AB0EE608A18EE94
:1057B000101A02EB4003B3F1654F3CBF02EB41020C
:1057C000B2F1654F7DD200BFC0F3C753C1F3C752DA
:1057D0009A1A1B2A09DD10F0004F14BF9FED830AAF
:1057E0009FED830ABDEC048B70BD12F11A0F36DAFF
:1057F00011F0004F09D010F0004F0CBF9FED7D0A53
:105800009FED7D0ABDEC048B70BD88EE889A19EE81
:10581000100AFFF730FF042808BF00F055FA18EE11
:10582000900AFFF728FF054618EE100AFFF723FF3E
:10583000044619EE100AFFF71EFF042D18BF052DB0
:1058400008D1042C18BF052C04D1002804BF022065
:10585000FAF7B1FFB0EE490ABDEC048B70BD42000F
:10586000B2EB410F3AD910F0004F19BFDFED630AD8
:105870009FED630ADFED630A9FED630AB0EE481AFD
:105880000A46B1EE688A80F00041F0EE418A104687
:105890000A1A5200B2F1807F34D2484010F0004F13
:1058A000DFED5A1A9FED5A2A1DBFBEEE001A70EEA8
:1058B000E10A30EE420AB6EE001A08BF70EEA10A05
:1058C00000E040E008BF30EE020AB0EE682A01EEC8
:1058D000482A08EE818AC2EE081A15E011F0004F3E
:1058E00004BF9FED4C0AF0EE400AD1D010F0004FFB
:1058F00019BFDFED490A9FED490ADFED490A9FED27
:10590000490AC5E7C8EE881A21EEA11A9FED462A7A
:10591000DFED462A41EE022A9FED452A01EE222ABA
:10592000DFED442A41EE022A9FED432ABDEC048BB1
:1059300001EE222A21EE811A01EE020A30EE210A3E
:1059400030EE200A70BD4FF07F42B2EB400F28BF0F
:10595000B2EB410F09D2F0EE480AB0EE680ABDEC96
:10596000048BBDE8704000F0A3B940EA01035B007E
:1059700008BF41F0FF410BD0B2EB400F08BFB2EBC4
:10598000410F08D120F0804008EE900A21F08041BC
:1059900008EE101A18E7B2EB400F12BF5FEA41039E
:1059A00040F0FF4001F000413FF40EAFB2EB410F79
:1059B00012BF5FEA400200F0004041F0FF413FF4B7
:1059C00003AF4A0092EA40033FF5FEAE002AACBFA7
:1059D0009FED1A0A9FED1A0A68EE808A28EE008A67
:1059E00018EE900A18EE101AEEE60000DB0FC9BFA1
:1059F000DB0FC93FDB0F4940DB0F49C00000C9BFC7
:105A000022AAFDB90000C93F22AAFD390060ED3E7F
:105A1000C30ACE3700000000000049C022AA7DBAA8
:105A20000000494022AA7D3A2DAD65BD8FB8D53D15
:105A30000FB511BE61C84C3EA8AAAABE0000804F97
:105A40000000802F0000000030B583B00446FAF754
:105A5000ADFE9FED090B05468DED000B00222146A2
:105A60006846FAF7CDFE2846FAF7A5FE9DED000B35
:105A700003B030BD00000000000000000000000086
:105A800010EE100AC0F3C7517F391729A8BF70471D
:105A9000DFED140A002970EE200A0DDAF5EEC00AD7
:105AA000F1EE10FA1ADD0028A8BF002016DAB0F1D6
:105AB000004F18BF0C4811E00C4ACA40104208BF02
:105AC0007047F5EEC00AF1EE10FA07DD002804DA9F
:105AD0004FF4000323FA01F10844904300EE100A4A
