:020000040800F2
:10000000E8080020890200084B0B0008C50600081C
:10001000490B0008C10600084D0C00080000000054
:10002000000000000000000000000000110C0008AB
:10003000C3060008000000004D0B0008150C000866
:10004000A3020008A3020008A3020008A3020008FC
:10005000A3020008A3020008A3020008A3020008EC
:10006000A3020008A3020008A3020008A3020008DC
:10007000A3020008A3020008A3020008A3020008CC
:10008000A302000800000000A3020008A302000869
:10009000A3020008A3020008A3020008A3020008AC
:1000A000A3020008A3020008A3020008A30200089C
:1000B000A3020008A3020008A3020008A30200088C
:1000C000A3020008A3020008A3020008A30200087C
:1000D000A3020008350C0008410C0008A302000828
:1000E000A3020008A3020008A3020008A30200085C
:1000F000A3020008A3020008A302000800000000F9
:1001000000000000A302000800000000A302000895
:10011000A302000800000000A3020008A3020008D8
:10012000A3020008A3020008A3020008A30200081B
:10013000A30200080000000000000000A302000865
:10014000A3020008A3020008000000000000000055
:10015000000000000000000000000000000000009F
:10016000000000000000000000000000A3020008E2
:10017000A3020008000000000000000000000000D2
:1001800000000000A30200080000000000000000C2
:10019000000000000000000000000000000000005F
:1001A0000000000000000000A3020008A3020008F5
:1001B000A3020008A3020008A30200080000000038
:1001C00000000000A3020008000000000000000082
:1001D000A3020008A302000800F002F800F045F8AE
:1001E0000AA090E8000C82448344AAF10107DA4592
:1001F00001D100F03AF8AFF2090EBAE80F0013F09F
:10020000010F18BFFB1A43F001031847640D0000EB
:10021000840D0000103A24BF78C878C1FAD852077C
:1002200024BF30C830C144BF04680C607047000070
:100230000023002400250026103A28BF78C1FBD8EF
:10024000520728BF30C148BF0B6070471FB500F090
:100250004BFE9DE8030000F003F900F0CFF81FBD4E
:1002600010B5002000F05AF910BD00F0B1F91146A8
:10027000FFF7ECFF00F0F2FD00F0CFF903B4FFF759
:10028000EFFF03BC00F09EF909488047094800478A
:10029000FEE7FEE7FEE7FEE7FEE7FEE7FEE7FEE736
:1002A000FEE7FEE704480549054A064B7047000093
:1002B000250C0008D9010008E8020020E808002009
:1002C000E8040020E804002070B50446051F00F093
:1002D000A7F80068002C14BF446870BD002C18BF3C
:1002E000AC423CBF20466468F8D301680A18AA42B1
:1002F00018BF456003D12A6805461144016028688B
:100300004119A1421CBF6C6070BD616869602168C1
:100310000844286070BD2DE9F041074615460E4699
:10032000102000F0CCF804000AD06760C4E9026530
:1003300000F07AF80168216004600020BDE8F081D7
:100340000120FBE710B5203AC0F00B80B1E818504F
:10035000203AA0E81850B1E81850A0E81850BFF4AF
:10036000F5AF5FEA027C24BFB1E81850A0E818504E
:1003700044BF18C918C0BDE810405FEA827C24BFA2
:1003800051F8043B40F8043B08BF7047D20728BF30
:1003900031F8023B48BF11F8012B28BF20F8023B7F
:1003A00048BF00F8012B70474FF0000200B513461C
:1003B00094469646203922BFA0E80C50A0E80C5085
:1003C000B1F12001BFF4F7AF090728BFA0E80C5036
:1003D00048BF0CC05DF804EB890028BF40F8042B2F
:1003E00008BF704748BF20F8022B11F0804F18BF9C
:1003F00000F8012B704770477047704770B5064C86
:100400007C44064D7D4403E0206820448047241D41
:10041000AC42F9D170BD00008C0B0000980B0000BD
:10042000004870478C02002000487047BC02002042
:10043000704770477047704738B504460A46002039
:100440006946AFF30080002808BF38BD0246009916
:10045000204600F090F8012038BD012000F0AAB835
:10046000F8B5AFF30080054600200C46102000BF11
:100470000646A819A0420DD9324669460020AFF3BE
:100480000080070008BF00F095F80098A04218BF50
:100490000546C419FFF7C4FF05600746F01D20F0AC
:1004A00007004619284600F05FF8B44208BFF8BDBF
:1004B000A21B31463868BDE8F84000F05CB870B562
:1004C0000646FFF7ADFF056806F10B0020F00704B4
:1004D000B4429CBF002070BD2B466A68BAB1106858
:1004E000A04210D304F1080188423CBF5068586014
:1004F00007D35168101941601168091B01605860E9
:100500001460101D70BD13465268002AE7D12146C1
:100510002846FFF791FF0028DED170BD2DE9F0419C
:100520000646FFF781FF8046454613E016B1E068B6
:10053000B0420ED120682860D4E90101D8F80070DB
:1005400088472046FFF7C0FED8F80000B842EBD13C
:1005500000E025462C68002CE8D1BDE8F0810000C1
:10056000004870478402002000210160C0E90110AA
:10057000704710207047034640688C46002818BF1B
:1005800088423CBF03464068F8D318681844884244
:1005900007D00CF1030020F00700001D411A521A89
:1005A0000146081D0A60FFF78FBE002801D000F049
:1005B00009B8704710B500F053F8BDE81040FFF7D8
:1005C000F4BF000001491820ABBEFEE72600020080
:1005D0007546FFF7C5FFAE4605006946534620F055
:1005E0000700854618B020B5FFF75CFEBDE8204047
:1005F0004FF000064FF000074FF000084FF0000BDF
:1006000021F00701AC46ACE8C009ACE8C009ACE891
:10061000C009ACE8C0098D46704710B50446AFF379
:1006200000802046BDE81040FFF728BE70B50546A3
:100630000C460A2000E06D1C00F03AF835B128782D
:100640000028F8D102E0641C00F032F814B12078E0
:100650000028F8D1BDE870400A2000F029B8000059
:1006600010B5012805D0002103A0FFF7DFFF01200E
:1006700010BD09A1F8E7000053494752544D454DBC
:100680003A204F7574206F662068656170206D6533
:100690006D6F7279000000003A2048656170206D2E
:1006A000656D6F727920636F727275707465640026
:1006B00008B569468DF800000320ABBE08BD704741
:1006C000FEE77047FEE7F0B50A680F2692FAA2F23D
:1006D000B2FA82F303248AE001259D402A407ED0AD
:1006E0004D68012D01D0022D20D18D68876892FAC6
:1006F000A2FCBCFA8CFC4FEA4C0E04FA0EFC27EA72
:100700000C0792FAA2FCBCFA8CFC4FEA4C0C05FADE
:100710000CF52F438760CF680D68D0F804C02CEA31
:10072000050C7D434CEA050CC0F804C00F69D0F8F5
:100730000CC092FAA2F5B5FA85F54FEA450E04FA17
:100740000EF52CEA050C92FAA2F5B5FA85F56D00C6
:10075000AF404CEA070CC0F80CC04D68022D2FD1F9
:10076000FF2A15D8D1F814C0056A92FAA2F7B7FA91
:1007700087F7BF0006FA07F7BD4392FAA2F7B7FA68
:1007800087F7BF000CFA07FC45EA0C05056217E085
:10079000D1F814E0476A150A95FAA5FCBCFA8CFC5E
:1007A0004FEA8C0C06FA0CFC95FAA5F5B5FA85F51E
:1007B000AD0027EA0C070EFA05FE47EA0E0747626E
:1007C0004D68076892FAA2FCBCFA8CFC4FEA4C0C0C
:1007D00004FA0CFE27EA0E0792FAA2F200E005E006
:1007E000B2FA82F2520095402F4307605B1C0A6800
:1007F00032FA03F57FF470AF0020F0BD4FF47A7148
:10080000B0FBF1F14FF0E020491E41610021816110
:10081000052101617047000010B50024C02823D1D4
:100820001248D0F8880000F0C00040F44000403882
:10083000B0F540000AD040280CD080280FD000F03E
:10084000B7F900F085F900F093F901E000F0B0F994
:10085000044609E000F068F830B1054C04E000F00F
:100860006BF808B14FF40044204610BD0010024060
:100870000024F40070B5002429492A4D4FF40046A5
:10088000032804D00C281AD030282FD040E0D1F80B
:1008900088006FF4403100F0030040F4403040180D
:1008A0000AD0012836D002282ED000F081F900F0BD
:1008B0004FF900F06DF917E000F07AF914E0D1F883
:1008C000880000F00C0040F44020001FB0F54020EC
:1008D000F2D004281ED0082816D000BF00F068F916
:1008E00000F036F900F044F9044611E0D1F8880030
:1008F00000F0300040F440101038B0F54010DBD06C
:10090000102807D02028E9D100F016F800B13446AD
:10091000204670BD00F008F80028F9D02C46F7E713
:10092000001002400024F40002480068C0F3802058
:1009300070470000001002400248D0F89000C0F359
:1009400040007047001002400149086070470000F5
:10095000000000202DE9F041044600680D46012604
:1009600010F0010F4CD12969A868EA690843696948
:100970001143084321682B4A114008432060E8686E
:10098000616821F4405101436160A869A16821F4C4
:1009900040710143A1602448844201D1032008E052
:1009A0002248844201D10C2003E02148844203D133
:1009B0003020FFF75FFF05E01E48844219D1C020B8
:1009C000FFF72AFFA8B1696899B12A680026EB6988
:1009D0000B2A0ED8184FD2B2B3F5004F57F8222089
:1009E000B0FBF2F00FD000EB5100B0FBF1F080B2A1
:1009F000E0602888E16A80B221F00F010143E162E2
:100A00003046BDE8F081400000EB5100B0FBF1F052
:100A100081B24FF6F07201EA0200C1F342010843CD
:100A2000E6E70000F369FFEF0038014000440040B2
:100A300000480040004C0040F40E0008F0B58FB0B4
:100A4000202106A8FFF7B0FC18216846FFF7ACFC90
:100A50003A4850F8881F002421F00C0140F83C1956
:100A6000C16841F40031C160C16801F400310E91E8
:100A7000016841F0020101600068022500F00200F7
:100A80000E9008200090CDE9015407262C4FCDE9A7
:100A90000446694638460394FFF715FE102000907F
:100AA000CDE90154CDE90446694638460394FFF781
:100AB0000AFE4FF4E130CDE906400C20CDE90A40B2
:100AC000089409940C940D941E4C06A92046FFF737
:100AD00041FF002204F1080050E8001F62F35F713B
:100AE00040E80013002BF7D1002104F1080000BFFB
:100AF00050E8002F22F0606242EA416240E80023A1
:100B0000002BF5D1206820F000502060606820F4B0
:100B100090406060A06820F02A00A060206840F04B
:100B200001002060E069C0F340500028FAD0E0697D
:100B3000C0F380500028F5D00FB0F0BD0010024087
:100B40000004004800440040FEE7FEE77047000054
:100B500005498968054A01F0F0010909515C01F075
:100B60001F01C8407047000000100240240F000819
:100B700005498968054A01F4E06102EB1121097811
:100B800001F01F01C840704700100240340F0008F8
:100B900005498968054A01F4605102EBD1210978C1
:100BA00001F01F01C840704700100240340F0008D8
:100BB0001549886800F00C031448042B0DD042102E
:100BC000082B09D00C2B08D1CB6803F00303022BB0
:100BD00005D0032B03D101E0104670471046CA68C8
:100BE000C2F306224243C868C96800F0F00301203E
:100BF00000EB1313B2FBF3F201F0C06100EB5160A4
:100C00004000B2FBF0F07047001002400024F400F6
:100C10007047000002480168491C016070470000ED
:100C2000040000200248016841F47001016070472F
:100C300088ED00E0014800F079B800002C000020A9
:100C4000014800F073B80000C8000020FEE7000073
:100C50002F4810B5016821F00F0141F00401016037
:100C6000016801F00F010429FAD12A4850F8801FC9
:100C700021F480710160284C206840F480302060AD
:100C80002068C0F340400028FAD0E16845F21350D4
:100C9000224A11400843E060E06840F08070E06064
:100CA000206840F0807020602068C0F34060002819
:100CB000FAD0A06840F00300A060802000F064F843
:100CC000A06800F00C000C28FAD11548016841F02A
:100CD000807101601348016841F001010160002149
:100CE000416041686429FCD3002000F04DF8A06801
:100CF00020F4E060A060A06820F46050A0600A4C7E
:100D00002046FFF77BFD2046BDE81040FFF71CBEE4
:100D10000020024000700040001002400C80FFF9EB
:100D2000FCED00E0001000E080FE210A30B4016913
:100D3000CA69C2F34012002A17D00A68C2F34012EF
:100D4000002A12D0496ACAB2018B438B491C01F0B8
:100D50007F018B4204D0048B00F11C03E254018319
:100D60004069002801D030BC004730BC704700000B
:100D700000224FF47A73C0E90123024B0360C0E9FB
:100D800004127047440F000803498A6822F0F002F9
:100D900002438A60704700000010024010B5044C06
:100DA000046080F8543080F8551080F8562010BD4B
:100DB000680F000803490160002180F8551080F891
:100DC00056107047680F000800B505490548FFF741
:100DD000CFFF044804499C305DF804EBFFF7C8BF1F
:100DE000003801402C0000200044004010B51C22B7
:100DF00005490648FFF7A6FA04481C22BDE8104042
:100E000001491C30FFF79EBA100000204C02002060
:100E1000044805490160303004490160303004491C
:100E200001607047BC0100200030014000380040E4
:100E3000003C004010B500230C220B210448FFF7B2
:100E4000ADFFBDE81040034A0349FFF764BA000054
:100E50006401002000000008B50D00081D4808B519
:100E6000016E41F001010166016E01F00101009186
:100E7000816D41F080518165806D174900F080508F
:100E8000009008684FF6FF021040144A40F440708A
:100E9000104308600868C0F30220C0F10702042A6A
:100EA00000D90422011D072901D2002000E0C01E44
:100EB00001219140491E81400801094981F8140D22
:100EC0000848816841F480418160FFF7C1FEFFF767
:100ED000B5FDFEE7001002400CED00E00000FA0551
:100EE0000FE000E0007000404FF04070E1EE100AAB
:100EF0007047000001000000020000000400000034
:100F000006000000080000000A0000000C000000BD
:100F100010000000200000004000000080000000E1
:100F200000010000000000000000000001020304B6
:100F30000607080900000000010203040000000089
:100F400000000000000000000000000000000000A1
:100F50000000000000000000000000000000000091
:100F60000000000000000000000000000000000081
:100F7000A00F0008000000202C0000001402000850
:100F8000CC0F00082C000020BC0800003002000834
:100F900039FEFFFFA1FEFFFF79FEFFFF51FEFFFFBD
:100FA0000024F40000000000000000000000000029
:100FB0000100000040420F000E000000FF3F000053
:0C0FC0000D0000000E0000000F000000FB
:04000005080001D915
:00000001FF
